{
  "_format": "hh-sol-artifact-1",
  "contractName": "GroundUp721A",
  "sourceName": "contracts/GroundUp721A.sol",
  "abi": [
    {
      "inputs": [
        {
          "internalType": "string",
          "name": "_name",
          "type": "string"
        },
        {
          "internalType": "string",
          "name": "_symbol",
          "type": "string"
        },
        {
          "internalType": "string",
          "name": "_uri",
          "type": "string"
        },
        {
          "internalType": "bytes32",
          "name": "_allowListMerkleRoot",
          "type": "bytes32"
        },
        {
          "internalType": "bytes32",
          "name": "_whitelistMerkleRoot",
          "type": "bytes32"
        }
      ],
      "stateMutability": "nonpayable",
      "type": "constructor"
    },
    {
      "inputs": [],
      "name": "ApprovalCallerNotOwnerNorApproved",
      "type": "error"
    },
    {
      "inputs": [],
      "name": "ApprovalQueryForNonexistentToken",
      "type": "error"
    },
    {
      "inputs": [],
      "name": "ApprovalToCurrentOwner",
      "type": "error"
    },
    {
      "inputs": [],
      "name": "ApproveToCaller",
      "type": "error"
    },
    {
      "inputs": [],
      "name": "BalanceQueryForZeroAddress",
      "type": "error"
    },
    {
      "inputs": [],
      "name": "MintToZeroAddress",
      "type": "error"
    },
    {
      "inputs": [],
      "name": "MintZeroQuantity",
      "type": "error"
    },
    {
      "inputs": [],
      "name": "OwnerQueryForNonexistentToken",
      "type": "error"
    },
    {
      "inputs": [],
      "name": "TransferCallerNotOwnerNorApproved",
      "type": "error"
    },
    {
      "inputs": [],
      "name": "TransferFromIncorrectOwner",
      "type": "error"
    },
    {
      "inputs": [],
      "name": "TransferToNonERC721ReceiverImplementer",
      "type": "error"
    },
    {
      "inputs": [],
      "name": "TransferToZeroAddress",
      "type": "error"
    },
    {
      "inputs": [],
      "name": "URIQueryForNonexistentToken",
      "type": "error"
    },
    {
      "anonymous": false,
      "inputs": [
        {
          "indexed": true,
          "internalType": "address",
          "name": "owner",
          "type": "address"
        },
        {
          "indexed": true,
          "internalType": "address",
          "name": "approved",
          "type": "address"
        },
        {
          "indexed": true,
          "internalType": "uint256",
          "name": "tokenId",
          "type": "uint256"
        }
      ],
      "name": "Approval",
      "type": "event"
    },
    {
      "anonymous": false,
      "inputs": [
        {
          "indexed": true,
          "internalType": "address",
          "name": "owner",
          "type": "address"
        },
        {
          "indexed": true,
          "internalType": "address",
          "name": "operator",
          "type": "address"
        },
        {
          "indexed": false,
          "internalType": "bool",
          "name": "approved",
          "type": "bool"
        }
      ],
      "name": "ApprovalForAll",
      "type": "event"
    },
    {
      "anonymous": false,
      "inputs": [
        {
          "indexed": true,
          "internalType": "address",
          "name": "previousOwner",
          "type": "address"
        },
        {
          "indexed": true,
          "internalType": "address",
          "name": "newOwner",
          "type": "address"
        }
      ],
      "name": "OwnershipTransferred",
      "type": "event"
    },
    {
      "anonymous": false,
      "inputs": [
        {
          "indexed": true,
          "internalType": "address",
          "name": "from",
          "type": "address"
        },
        {
          "indexed": true,
          "internalType": "address",
          "name": "to",
          "type": "address"
        },
        {
          "indexed": true,
          "internalType": "uint256",
          "name": "tokenId",
          "type": "uint256"
        }
      ],
      "name": "Transfer",
      "type": "event"
    },
    {
      "inputs": [],
      "name": "allowListMerkleRoot",
      "outputs": [
        {
          "internalType": "bytes32",
          "name": "",
          "type": "bytes32"
        }
      ],
      "stateMutability": "view",
      "type": "function"
    },
    {
      "inputs": [],
      "name": "allowListMintAmountPerAddr",
      "outputs": [
        {
          "internalType": "uint256",
          "name": "",
          "type": "uint256"
        }
      ],
      "stateMutability": "view",
      "type": "function"
    },
    {
      "inputs": [
        {
          "internalType": "address",
          "name": "",
          "type": "address"
        }
      ],
      "name": "allowListMinted",
      "outputs": [
        {
          "internalType": "uint256",
          "name": "",
          "type": "uint256"
        }
      ],
      "stateMutability": "view",
      "type": "function"
    },
    {
      "inputs": [
        {
          "internalType": "address",
          "name": "to",
          "type": "address"
        },
        {
          "internalType": "uint256",
          "name": "tokenId",
          "type": "uint256"
        }
      ],
      "name": "approve",
      "outputs": [],
      "stateMutability": "nonpayable",
      "type": "function"
    },
    {
      "inputs": [
        {
          "internalType": "address",
          "name": "owner",
          "type": "address"
        }
      ],
      "name": "balanceOf",
      "outputs": [
        {
          "internalType": "uint256",
          "name": "",
          "type": "uint256"
        }
      ],
      "stateMutability": "view",
      "type": "function"
    },
    {
      "inputs": [
        {
          "internalType": "uint256",
          "name": "tokenId",
          "type": "uint256"
        }
      ],
      "name": "getApproved",
      "outputs": [
        {
          "internalType": "address",
          "name": "",
          "type": "address"
        }
      ],
      "stateMutability": "view",
      "type": "function"
    },
    {
      "inputs": [],
      "name": "getBalance",
      "outputs": [
        {
          "internalType": "uint256",
          "name": "",
          "type": "uint256"
        }
      ],
      "stateMutability": "view",
      "type": "function"
    },
    {
      "inputs": [
        {
          "internalType": "address",
          "name": "owner",
          "type": "address"
        },
        {
          "internalType": "address",
          "name": "operator",
          "type": "address"
        }
      ],
      "name": "isApprovedForAll",
      "outputs": [
        {
          "internalType": "bool",
          "name": "",
          "type": "bool"
        }
      ],
      "stateMutability": "view",
      "type": "function"
    },
    {
      "inputs": [],
      "name": "maxSupply",
      "outputs": [
        {
          "internalType": "uint256",
          "name": "",
          "type": "uint256"
        }
      ],
      "stateMutability": "view",
      "type": "function"
    },
    {
      "inputs": [
        {
          "internalType": "uint256",
          "name": "_mintAmount",
          "type": "uint256"
        },
        {
          "internalType": "bytes32[]",
          "name": "_merkleProof",
          "type": "bytes32[]"
        }
      ],
      "name": "mint",
      "outputs": [],
      "stateMutability": "payable",
      "type": "function"
    },
    {
      "inputs": [
        {
          "internalType": "address",
          "name": "_receiver",
          "type": "address"
        },
        {
          "internalType": "uint256",
          "name": "_mintAmount",
          "type": "uint256"
        }
      ],
      "name": "mintForAddress",
      "outputs": [],
      "stateMutability": "nonpayable",
      "type": "function"
    },
    {
      "inputs": [],
      "name": "name",
      "outputs": [
        {
          "internalType": "string",
          "name": "",
          "type": "string"
        }
      ],
      "stateMutability": "view",
      "type": "function"
    },
    {
      "inputs": [],
      "name": "nftPrice",
      "outputs": [
        {
          "internalType": "uint256",
          "name": "",
          "type": "uint256"
        }
      ],
      "stateMutability": "view",
      "type": "function"
    },
    {
      "inputs": [],
      "name": "owner",
      "outputs": [
        {
          "internalType": "address",
          "name": "",
          "type": "address"
        }
      ],
      "stateMutability": "view",
      "type": "function"
    },
    {
      "inputs": [
        {
          "internalType": "uint256",
          "name": "tokenId",
          "type": "uint256"
        }
      ],
      "name": "ownerOf",
      "outputs": [
        {
          "internalType": "address",
          "name": "",
          "type": "address"
        }
      ],
      "stateMutability": "view",
      "type": "function"
    },
    {
      "inputs": [],
      "name": "renounceOwnership",
      "outputs": [],
      "stateMutability": "nonpayable",
      "type": "function"
    },
    {
      "inputs": [
        {
          "internalType": "address",
          "name": "from",
          "type": "address"
        },
        {
          "internalType": "address",
          "name": "to",
          "type": "address"
        },
        {
          "internalType": "uint256",
          "name": "tokenId",
          "type": "uint256"
        }
      ],
      "name": "safeTransferFrom",
      "outputs": [],
      "stateMutability": "nonpayable",
      "type": "function"
    },
    {
      "inputs": [
        {
          "internalType": "address",
          "name": "from",
          "type": "address"
        },
        {
          "internalType": "address",
          "name": "to",
          "type": "address"
        },
        {
          "internalType": "uint256",
          "name": "tokenId",
          "type": "uint256"
        },
        {
          "internalType": "bytes",
          "name": "_data",
          "type": "bytes"
        }
      ],
      "name": "safeTransferFrom",
      "outputs": [],
      "stateMutability": "nonpayable",
      "type": "function"
    },
    {
      "inputs": [
        {
          "internalType": "bytes32",
          "name": "_allowlistMerkleRoot",
          "type": "bytes32"
        }
      ],
      "name": "setAllowlistMerkleRoot",
      "outputs": [],
      "stateMutability": "nonpayable",
      "type": "function"
    },
    {
      "inputs": [
        {
          "internalType": "address",
          "name": "operator",
          "type": "address"
        },
        {
          "internalType": "bool",
          "name": "approved",
          "type": "bool"
        }
      ],
      "name": "setApprovalForAll",
      "outputs": [],
      "stateMutability": "nonpayable",
      "type": "function"
    },
    {
      "inputs": [
        {
          "internalType": "string",
          "name": "_newBaseURI",
          "type": "string"
        }
      ],
      "name": "setBaseURI",
      "outputs": [],
      "stateMutability": "nonpayable",
      "type": "function"
    },
    {
      "inputs": [
        {
          "internalType": "enum GroundUp721A.Status",
          "name": "_status",
          "type": "uint8"
        }
      ],
      "name": "setStatus",
      "outputs": [],
      "stateMutability": "nonpayable",
      "type": "function"
    },
    {
      "inputs": [
        {
          "internalType": "bytes32",
          "name": "_whitelistMerkleRoot",
          "type": "bytes32"
        }
      ],
      "name": "setWhitelistMerkleRoot",
      "outputs": [],
      "stateMutability": "nonpayable",
      "type": "function"
    },
    {
      "inputs": [],
      "name": "status",
      "outputs": [
        {
          "internalType": "enum GroundUp721A.Status",
          "name": "",
          "type": "uint8"
        }
      ],
      "stateMutability": "view",
      "type": "function"
    },
    {
      "inputs": [
        {
          "internalType": "bytes4",
          "name": "interfaceId",
          "type": "bytes4"
        }
      ],
      "name": "supportsInterface",
      "outputs": [
        {
          "internalType": "bool",
          "name": "",
          "type": "bool"
        }
      ],
      "stateMutability": "view",
      "type": "function"
    },
    {
      "inputs": [],
      "name": "symbol",
      "outputs": [
        {
          "internalType": "string",
          "name": "",
          "type": "string"
        }
      ],
      "stateMutability": "view",
      "type": "function"
    },
    {
      "inputs": [
        {
          "internalType": "uint256",
          "name": "tokenId",
          "type": "uint256"
        }
      ],
      "name": "tokenURI",
      "outputs": [
        {
          "internalType": "string",
          "name": "",
          "type": "string"
        }
      ],
      "stateMutability": "view",
      "type": "function"
    },
    {
      "inputs": [],
      "name": "totalSupply",
      "outputs": [
        {
          "internalType": "uint256",
          "name": "",
          "type": "uint256"
        }
      ],
      "stateMutability": "view",
      "type": "function"
    },
    {
      "inputs": [
        {
          "internalType": "address",
          "name": "from",
          "type": "address"
        },
        {
          "internalType": "address",
          "name": "to",
          "type": "address"
        },
        {
          "internalType": "uint256",
          "name": "tokenId",
          "type": "uint256"
        }
      ],
      "name": "transferFrom",
      "outputs": [],
      "stateMutability": "nonpayable",
      "type": "function"
    },
    {
      "inputs": [
        {
          "internalType": "address",
          "name": "newOwner",
          "type": "address"
        }
      ],
      "name": "transferOwnership",
      "outputs": [],
      "stateMutability": "nonpayable",
      "type": "function"
    },
    {
      "inputs": [],
      "name": "whitelistMerkleRoot",
      "outputs": [
        {
          "internalType": "bytes32",
          "name": "",
          "type": "bytes32"
        }
      ],
      "stateMutability": "view",
      "type": "function"
    },
    {
      "inputs": [],
      "name": "whitelistMintAmountPerAddr",
      "outputs": [
        {
          "internalType": "uint256",
          "name": "",
          "type": "uint256"
        }
      ],
      "stateMutability": "view",
      "type": "function"
    },
    {
      "inputs": [
        {
          "internalType": "address",
          "name": "",
          "type": "address"
        }
      ],
      "name": "whitelistMinted",
      "outputs": [
        {
          "internalType": "uint256",
          "name": "",
          "type": "uint256"
        }
      ],
      "stateMutability": "view",
      "type": "function"
    },
    {
      "inputs": [],
      "name": "withdraw",
      "outputs": [],
      "stateMutability": "nonpayable",
      "type": "function"
    }
  ],
  "bytecode": "0x608060405234801562000010575f80fd5b506040516200461138038062004611833981810160405281019062000036919062000457565b848481600290816200004991906200076f565b5080600390816200005b91906200076f565b506200006c620000cf60201b60201c565b5f8190555050506200009362000087620000d760201b60201c565b620000de60201b60201c565b82600d9081620000a491906200076f565b508160098190555080600a81905550620000c45f620001a160201b60201c565b5050505050620008fe565b5f6001905090565b5f33905090565b5f60085f9054906101000a900473ffffffffffffffffffffffffffffffffffffffff1690508160085f6101000a81548173ffffffffffffffffffffffffffffffffffffffff021916908373ffffffffffffffffffffffffffffffffffffffff1602179055508173ffffffffffffffffffffffffffffffffffffffff168173ffffffffffffffffffffffffffffffffffffffff167f8be0079c531659141344cd1fd0a4f28419497f9722a3daafe3b4186f6b6457e060405160405180910390a35050565b620001b1620001e160201b60201c565b80600860146101000a81548160ff02191690836003811115620001d957620001d862000853565b5b021790555050565b620001f1620000d760201b60201c565b73ffffffffffffffffffffffffffffffffffffffff16620002176200027260201b60201c565b73ffffffffffffffffffffffffffffffffffffffff161462000270576040517f08c379a00000000000000000000000000000000000000000000000000000000081526004016200026790620008de565b60405180910390fd5b565b5f60085f9054906101000a900473ffffffffffffffffffffffffffffffffffffffff16905090565b5f604051905090565b5f80fd5b5f80fd5b5f80fd5b5f80fd5b5f601f19601f8301169050919050565b7f4e487b71000000000000000000000000000000000000000000000000000000005f52604160045260245ffd5b620002fb82620002b3565b810181811067ffffffffffffffff821117156200031d576200031c620002c3565b5b80604052505050565b5f620003316200029a565b90506200033f8282620002f0565b919050565b5f67ffffffffffffffff821115620003615762000360620002c3565b5b6200036c82620002b3565b9050602081019050919050565b5f5b83811015620003985780820151818401526020810190506200037b565b5f8484015250505050565b5f620003b9620003b38462000344565b62000326565b905082815260208101848484011115620003d857620003d7620002af565b5b620003e584828562000379565b509392505050565b5f82601f830112620004045762000403620002ab565b5b815162000416848260208601620003a3565b91505092915050565b5f819050919050565b62000433816200041f565b81146200043e575f80fd5b50565b5f81519050620004518162000428565b92915050565b5f805f805f60a08688031215620004735762000472620002a3565b5b5f86015167ffffffffffffffff811115620004935762000492620002a7565b5b620004a188828901620003ed565b955050602086015167ffffffffffffffff811115620004c557620004c4620002a7565b5b620004d388828901620003ed565b945050604086015167ffffffffffffffff811115620004f757620004f6620002a7565b5b6200050588828901620003ed565b9350506060620005188882890162000441565b92505060806200052b8882890162000441565b9150509295509295909350565b5f81519050919050565b7f4e487b71000000000000000000000000000000000000000000000000000000005f52602260045260245ffd5b5f60028204905060018216806200058757607f821691505b6020821081036200059d576200059c62000542565b5b50919050565b5f819050815f5260205f209050919050565b5f6020601f8301049050919050565b5f82821b905092915050565b5f60088302620006017fffffffffffffffffffffffffffffffffffffffffffffffffffffffffffffffff82620005c4565b6200060d8683620005c4565b95508019841693508086168417925050509392505050565b5f819050919050565b5f819050919050565b5f62000657620006516200064b8462000625565b6200062e565b62000625565b9050919050565b5f819050919050565b620006728362000637565b6200068a62000681826200065e565b848454620005d0565b825550505050565b5f90565b620006a062000692565b620006ad81848462000667565b505050565b5b81811015620006d457620006c85f8262000696565b600181019050620006b3565b5050565b601f8211156200072357620006ed81620005a3565b620006f884620005b5565b8101602085101562000708578190505b620007206200071785620005b5565b830182620006b2565b50505b505050565b5f82821c905092915050565b5f620007455f198460080262000728565b1980831691505092915050565b5f6200075f838362000734565b9150826002028217905092915050565b6200077a8262000538565b67ffffffffffffffff811115620007965762000795620002c3565b5b620007a282546200056f565b620007af828285620006d8565b5f60209050601f831160018114620007e5575f8415620007d0578287015190505b620007dc858262000752565b8655506200084b565b601f198416620007f586620005a3565b5f5b828110156200081e57848901518255600182019150602085019450602081019050620007f7565b868310156200083e57848901516200083a601f89168262000734565b8355505b6001600288020188555050505b505050505050565b7f4e487b71000000000000000000000000000000000000000000000000000000005f52602160045260245ffd5b5f82825260208201905092915050565b7f4f776e61626c653a2063616c6c6572206973206e6f7420746865206f776e65725f82015250565b5f620008c660208362000880565b9150620008d38262000890565b602082019050919050565b5f6020820190508181035f830152620008f781620008b8565b9050919050565b613d05806200090c5f395ff3fe6080604052600436106101f8575f3560e01c8063715018a61161010c578063ba41b0c61161009f578063e985e9c51161006e578063e985e9c5146106e4578063f254933d14610720578063f2fde38b14610748578063f95df41414610770578063fa1431da14610798576101f8565b8063ba41b0c61461063a578063bd32fb6614610656578063c87b56dd1461067e578063d5abeb01146106ba576101f8565b80639bb906e0116100db5780639bb906e014610596578063a22cb465146105c0578063aa98e0c6146105e8578063b88d4fde14610612576101f8565b8063715018a6146104f05780638da5cb5b1461050657806395d89b411461053057806398a8cffe1461055a576101f8565b8063200d2ed21161018f57806342842e0e1161015e57806342842e0e146103fe5780634ec4d37a1461042657806355f804b3146104505780636352211e1461047857806370a08231146104b4576101f8565b8063200d2ed21461036e57806323b872dd146103985780632e49d78b146103c05780633ccfd60b146103e8576101f8565b80630c220a02116101cb5780630c220a02146102c65780630d39fc81146102f057806312065fe01461031a57806318160ddd14610344576101f8565b806301ffc9a7146101fc57806306fdde0314610238578063081812fc14610262578063095ea7b31461029e575b5f80fd5b348015610207575f80fd5b50610222600480360381019061021d9190612a8c565b6107d4565b60405161022f9190612ad1565b60405180910390f35b348015610243575f80fd5b5061024c6108b5565b6040516102599190612b74565b60405180910390f35b34801561026d575f80fd5b5061028860048036038101906102839190612bc7565b610945565b6040516102959190612c31565b60405180910390f35b3480156102a9575f80fd5b506102c460048036038101906102bf9190612c74565b6109bd565b005b3480156102d1575f80fd5b506102da610ac6565b6040516102e79190612cc1565b60405180910390f35b3480156102fb575f80fd5b50610304610acb565b6040516103119190612cc1565b60405180910390f35b348015610325575f80fd5b5061032e610ad6565b60405161033b9190612cc1565b60405180910390f35b34801561034f575f80fd5b50610358610add565b6040516103659190612cc1565b60405180910390f35b348015610379575f80fd5b50610382610af2565b60405161038f9190612d4d565b60405180910390f35b3480156103a3575f80fd5b506103be60048036038101906103b99190612d66565b610b05565b005b3480156103cb575f80fd5b506103e660048036038101906103e19190612dd9565b610b15565b005b3480156103f3575f80fd5b506103fc610b4a565b005b348015610409575f80fd5b50610424600480360381019061041f9190612d66565b610bcd565b005b348015610431575f80fd5b5061043a610bec565b6040516104479190612cc1565b60405180910390f35b34801561045b575f80fd5b5061047660048036038101906104719190612e65565b610bf1565b005b348015610483575f80fd5b5061049e60048036038101906104999190612bc7565b610c0f565b6040516104ab9190612c31565b60405180910390f35b3480156104bf575f80fd5b506104da60048036038101906104d59190612eb0565b610c23565b6040516104e79190612cc1565b60405180910390f35b3480156104fb575f80fd5b50610504610ced565b005b348015610511575f80fd5b5061051a610d00565b6040516105279190612c31565b60405180910390f35b34801561053b575f80fd5b50610544610d28565b6040516105519190612b74565b60405180910390f35b348015610565575f80fd5b50610580600480360381019061057b9190612eb0565b610db8565b60405161058d9190612cc1565b60405180910390f35b3480156105a1575f80fd5b506105aa610dcd565b6040516105b79190612ef3565b60405180910390f35b3480156105cb575f80fd5b506105e660048036038101906105e19190612f36565b610dd3565b005b3480156105f3575f80fd5b506105fc610f45565b6040516106099190612ef3565b60405180910390f35b34801561061d575f80fd5b506106386004803603810190610633919061309c565b610f4b565b005b610654600480360381019061064f9190613171565b610fc7565b005b348015610661575f80fd5b5061067c600480360381019061067791906131f8565b6114ef565b005b348015610689575f80fd5b506106a4600480360381019061069f9190612bc7565b611501565b6040516106b19190612b74565b60405180910390f35b3480156106c5575f80fd5b506106ce61159c565b6040516106db9190612cc1565b60405180910390f35b3480156106ef575f80fd5b5061070a60048036038101906107059190613223565b6115a2565b6040516107179190612ad1565b60405180910390f35b34801561072b575f80fd5b5061074660048036038101906107419190612c74565b611630565b005b348015610753575f80fd5b5061076e60048036038101906107699190612eb0565b61169d565b005b34801561077b575f80fd5b50610796600480360381019061079191906131f8565b61171f565b005b3480156107a3575f80fd5b506107be60048036038101906107b99190612eb0565b611731565b6040516107cb9190612cc1565b60405180910390f35b5f7f80ac58cd000000000000000000000000000000000000000000000000000000007bffffffffffffffffffffffffffffffffffffffffffffffffffffffff1916827bffffffffffffffffffffffffffffffffffffffffffffffffffffffff1916148061089e57507f5b5e139f000000000000000000000000000000000000000000000000000000007bffffffffffffffffffffffffffffffffffffffffffffffffffffffff1916827bffffffffffffffffffffffffffffffffffffffffffffffffffffffff1916145b806108ae57506108ad82611746565b5b9050919050565b6060600280546108c49061328e565b80601f01602080910402602001604051908101604052809291908181526020018280546108f09061328e565b801561093b5780601f106109125761010080835404028352916020019161093b565b820191905f5260205f20905b81548152906001019060200180831161091e57829003601f168201915b5050505050905090565b5f61094f826117af565b610985576040517fcf4700e400000000000000000000000000000000000000000000000000000000815260040160405180910390fd5b60065f8381526020019081526020015f205f9054906101000a900473ffffffffffffffffffffffffffffffffffffffff169050919050565b5f6109c782610c0f565b90508073ffffffffffffffffffffffffffffffffffffffff168373ffffffffffffffffffffffffffffffffffffffff1603610a2e576040517f943f7b8c00000000000000000000000000000000000000000000000000000000815260040160405180910390fd5b8073ffffffffffffffffffffffffffffffffffffffff16610a4d6117f8565b73ffffffffffffffffffffffffffffffffffffffff1614158015610a7f5750610a7d81610a786117f8565b6115a2565b155b15610ab6576040517fcfb3b94200000000000000000000000000000000000000000000000000000000815260040160405180910390fd5b610ac18383836117ff565b505050565b600181565b66b1a2bc2ec5000081565b5f47905090565b5f610ae66118ae565b6001545f540303905090565b600860149054906101000a900460ff1681565b610b108383836118b6565b505050565b610b1d611d7f565b80600860146101000a81548160ff02191690836003811115610b4257610b41612cda565b5b021790555050565b610b52611d7f565b5f610b5b610d00565b73ffffffffffffffffffffffffffffffffffffffff1647604051610b7e906132eb565b5f6040518083038185875af1925050503d805f8114610bb8576040519150601f19603f3d011682016040523d82523d5f602084013e610bbd565b606091505b5050905080610bca575f80fd5b50565b610be783838360405180602001604052805f815250610f4b565b505050565b600281565b610bf9611d7f565b8181600d9182610c0a9291906134a6565b505050565b5f610c1982611dfd565b5f01519050919050565b5f8073ffffffffffffffffffffffffffffffffffffffff168273ffffffffffffffffffffffffffffffffffffffff1603610c89576040517f8f4eb60400000000000000000000000000000000000000000000000000000000815260040160405180910390fd5b60055f8373ffffffffffffffffffffffffffffffffffffffff1673ffffffffffffffffffffffffffffffffffffffff1681526020019081526020015f205f015f9054906101000a900467ffffffffffffffff1667ffffffffffffffff169050919050565b610cf5611d7f565b610cfe5f612079565b565b5f60085f9054906101000a900473ffffffffffffffffffffffffffffffffffffffff16905090565b606060038054610d379061328e565b80601f0160208091040260200160405190810160405280929190818152602001828054610d639061328e565b8015610dae5780601f10610d8557610100808354040283529160200191610dae565b820191905f5260205f20905b815481529060010190602001808311610d9157829003601f168201915b5050505050905090565b600c602052805f5260405f205f915090505481565b60095481565b610ddb6117f8565b73ffffffffffffffffffffffffffffffffffffffff168273ffffffffffffffffffffffffffffffffffffffff1603610e3f576040517fb06307db00000000000000000000000000000000000000000000000000000000815260040160405180910390fd5b8060075f610e4b6117f8565b73ffffffffffffffffffffffffffffffffffffffff1673ffffffffffffffffffffffffffffffffffffffff1681526020019081526020015f205f8473ffffffffffffffffffffffffffffffffffffffff1673ffffffffffffffffffffffffffffffffffffffff1681526020019081526020015f205f6101000a81548160ff0219169083151502179055508173ffffffffffffffffffffffffffffffffffffffff16610ef46117f8565b73ffffffffffffffffffffffffffffffffffffffff167f17307eab39ab6107e8899845ad3d59bd9653f200f220920489ca2b5937696c3183604051610f399190612ad1565b60405180910390a35050565b600a5481565b610f568484846118b6565b610f758373ffffffffffffffffffffffffffffffffffffffff1661213c565b8015610f8a5750610f888484848461215e565b155b15610fc1576040517fd1a57ed600000000000000000000000000000000000000000000000000000000815260040160405180910390fd5b50505050565b600380811115610fda57610fd9612cda565b5b600860149054906101000a900460ff166003811115610ffc57610ffb612cda565b5b1415801561103d57505f600381111561101857611017612cda565b5b600860149054906101000a900460ff16600381111561103a57611039612cda565b5b14155b61107c576040517f08c379a0000000000000000000000000000000000000000000000000000000008152600401611073906135e3565b60405180910390fd5b8266b1a2bc2ec5000061108f919061362e565b3410156110d1576040517f08c379a00000000000000000000000000000000000000000000000000000000081526004016110c8906136b9565b60405180910390fd5b5f8311611113576040517f08c379a000000000000000000000000000000000000000000000000000000000815260040161110a90613721565b60405180910390fd5b6109c48361111f610add565b611129919061373f565b111561116a576040517f08c379a0000000000000000000000000000000000000000000000000000000008152600401611161906137bc565b60405180910390fd5b5f6111736117f8565b6040516020016111839190612c31565b604051602081830303815290604052805190602001206040516020016111a991906137fa565b604051602081830303815290604052805190602001209050600160038111156111d5576111d4612cda565b5b600860149054906101000a900460ff1660038111156111f7576111f6612cda565b5b0361136c57600284600b5f3373ffffffffffffffffffffffffffffffffffffffff1673ffffffffffffffffffffffffffffffffffffffff1681526020019081526020015f2054611247919061373f565b1115611288576040517f08c379a000000000000000000000000000000000000000000000000000000000815260040161127f90613884565b60405180910390fd5b6112d58383808060200260200160405190810160405280939291908181526020018383602002808284375f81840152601f19601f82011690508083019250505050505050600954836122a9565b611314576040517f08c379a000000000000000000000000000000000000000000000000000000000815260040161130b906138ec565b60405180910390fd5b83600b5f3373ffffffffffffffffffffffffffffffffffffffff1673ffffffffffffffffffffffffffffffffffffffff1681526020019081526020015f205f828254611360919061373f565b925050819055506114d8565b600184600c5f3373ffffffffffffffffffffffffffffffffffffffff1673ffffffffffffffffffffffffffffffffffffffff1681526020019081526020015f20546113b7919061373f565b11156113f8576040517f08c379a00000000000000000000000000000000000000000000000000000000081526004016113ef9061397a565b60405180910390fd5b6114458383808060200260200160405190810160405280939291908181526020018383602002808284375f81840152601f19601f82011690508083019250505050505050600a54836122a9565b611484576040517f08c379a000000000000000000000000000000000000000000000000000000000815260040161147b906139e2565b60405180910390fd5b83600c5f3373ffffffffffffffffffffffffffffffffffffffff1673ffffffffffffffffffffffffffffffffffffffff1681526020019081526020015f205f8282546114d0919061373f565b925050819055505b6114e96114e36117f8565b856122bf565b50505050565b6114f7611d7f565b80600a8190555050565b606061150c826117af565b611542576040517fa14c4b5000000000000000000000000000000000000000000000000000000000815260040160405180910390fd5b5f61154b6122dc565b90505f8151036115695760405180602001604052805f815250611594565b806115738461236c565b604051602001611584929190613a3a565b6040516020818303038152906040525b915050919050565b6109c481565b5f60075f8473ffffffffffffffffffffffffffffffffffffffff1673ffffffffffffffffffffffffffffffffffffffff1681526020019081526020015f205f8373ffffffffffffffffffffffffffffffffffffffff1673ffffffffffffffffffffffffffffffffffffffff1681526020019081526020015f205f9054906101000a900460ff16905092915050565b611638611d7f565b6109c481611644610add565b61164e919061373f565b111561168f576040517f08c379a0000000000000000000000000000000000000000000000000000000008152600401611686906137bc565b60405180910390fd5b61169982826122bf565b5050565b6116a5611d7f565b5f73ffffffffffffffffffffffffffffffffffffffff168173ffffffffffffffffffffffffffffffffffffffff1603611713576040517f08c379a000000000000000000000000000000000000000000000000000000000815260040161170a90613acd565b60405180910390fd5b61171c81612079565b50565b611727611d7f565b8060098190555050565b600b602052805f5260405f205f915090505481565b5f7f01ffc9a7000000000000000000000000000000000000000000000000000000007bffffffffffffffffffffffffffffffffffffffffffffffffffffffff1916827bffffffffffffffffffffffffffffffffffffffffffffffffffffffff1916149050919050565b5f816117b96118ae565b111580156117c757505f5482105b80156117f1575060045f8381526020019081526020015f205f01601c9054906101000a900460ff16155b9050919050565b5f33905090565b8260065f8481526020019081526020015f205f6101000a81548173ffffffffffffffffffffffffffffffffffffffff021916908373ffffffffffffffffffffffffffffffffffffffff160217905550818373ffffffffffffffffffffffffffffffffffffffff168273ffffffffffffffffffffffffffffffffffffffff167f8c5be1e5ebec7d5bd14f71427d1e84f3dd0314c0f7b2291e5b200ac8c7c3b92560405160405180910390a4505050565b5f6001905090565b5f6118c082611dfd565b90505f815f015173ffffffffffffffffffffffffffffffffffffffff166118e56117f8565b73ffffffffffffffffffffffffffffffffffffffff1614806119175750611916825f01516119116117f8565b6115a2565b5b8061195c57506119256117f8565b73ffffffffffffffffffffffffffffffffffffffff1661194484610945565b73ffffffffffffffffffffffffffffffffffffffff16145b905080611995576040517f59c896be00000000000000000000000000000000000000000000000000000000815260040160405180910390fd5b8473ffffffffffffffffffffffffffffffffffffffff16825f015173ffffffffffffffffffffffffffffffffffffffff16146119fd576040517fa114810000000000000000000000000000000000000000000000000000000000815260040160405180910390fd5b5f73ffffffffffffffffffffffffffffffffffffffff168473ffffffffffffffffffffffffffffffffffffffff1603611a62576040517fea553b3400000000000000000000000000000000000000000000000000000000815260040160405180910390fd5b611a6f8585856001612436565b611a7d5f84845f01516117ff565b600160055f8773ffffffffffffffffffffffffffffffffffffffff1673ffffffffffffffffffffffffffffffffffffffff1681526020019081526020015f205f015f8282829054906101000a900467ffffffffffffffff160392506101000a81548167ffffffffffffffff021916908367ffffffffffffffff160217905550600160055f8673ffffffffffffffffffffffffffffffffffffffff1673ffffffffffffffffffffffffffffffffffffffff1681526020019081526020015f205f015f8282829054906101000a900467ffffffffffffffff160192506101000a81548167ffffffffffffffff021916908367ffffffffffffffff1602179055508360045f8581526020019081526020015f205f015f6101000a81548173ffffffffffffffffffffffffffffffffffffffff021916908373ffffffffffffffffffffffffffffffffffffffff1602179055504260045f8581526020019081526020015f205f0160146101000a81548167ffffffffffffffff021916908367ffffffffffffffff1602179055505f6001840190505f73ffffffffffffffffffffffffffffffffffffffff1660045f8381526020019081526020015f205f015f9054906101000a900473ffffffffffffffffffffffffffffffffffffffff1673ffffffffffffffffffffffffffffffffffffffff1603611d0f575f54811015611d0e57825f015160045f8381526020019081526020015f205f015f6101000a81548173ffffffffffffffffffffffffffffffffffffffff021916908373ffffffffffffffffffffffffffffffffffffffff160217905550826020015160045f8381526020019081526020015f205f0160146101000a81548167ffffffffffffffff021916908367ffffffffffffffff1602179055505b5b50828473ffffffffffffffffffffffffffffffffffffffff168673ffffffffffffffffffffffffffffffffffffffff167fddf252ad1be2c89b69c2b068fc378daa952ba7f163c4a11628f55a4df523b3ef60405160405180910390a4611d78858585600161243c565b5050505050565b611d876117f8565b73ffffffffffffffffffffffffffffffffffffffff16611da5610d00565b73ffffffffffffffffffffffffffffffffffffffff1614611dfb576040517f08c379a0000000000000000000000000000000000000000000000000000000008152600401611df290613b35565b60405180910390fd5b565b611e056129e6565b5f82905080611e126118ae565b11158015611e2057505f5481105b15612042575f60045f8381526020019081526020015f206040518060600160405290815f82015f9054906101000a900473ffffffffffffffffffffffffffffffffffffffff1673ffffffffffffffffffffffffffffffffffffffff1673ffffffffffffffffffffffffffffffffffffffff1681526020015f820160149054906101000a900467ffffffffffffffff1667ffffffffffffffff1667ffffffffffffffff1681526020015f8201601c9054906101000a900460ff16151515158152505090508060400151612040575f73ffffffffffffffffffffffffffffffffffffffff16815f015173ffffffffffffffffffffffffffffffffffffffff1614611f2c578092505050612074565b5b60011561203f5781806001900392505060045f8381526020019081526020015f206040518060600160405290815f82015f9054906101000a900473ffffffffffffffffffffffffffffffffffffffff1673ffffffffffffffffffffffffffffffffffffffff1673ffffffffffffffffffffffffffffffffffffffff1681526020015f820160149054906101000a900467ffffffffffffffff1667ffffffffffffffff1667ffffffffffffffff1681526020015f8201601c9054906101000a900460ff16151515158152505090505f73ffffffffffffffffffffffffffffffffffffffff16815f015173ffffffffffffffffffffffffffffffffffffffff161461203a578092505050612074565b611f2d565b5b505b6040517fdf2d9b4200000000000000000000000000000000000000000000000000000000815260040160405180910390fd5b919050565b5f60085f9054906101000a900473ffffffffffffffffffffffffffffffffffffffff1690508160085f6101000a81548173ffffffffffffffffffffffffffffffffffffffff021916908373ffffffffffffffffffffffffffffffffffffffff1602179055508173ffffffffffffffffffffffffffffffffffffffff168173ffffffffffffffffffffffffffffffffffffffff167f8be0079c531659141344cd1fd0a4f28419497f9722a3daafe3b4186f6b6457e060405160405180910390a35050565b5f808273ffffffffffffffffffffffffffffffffffffffff163b119050919050565b5f8373ffffffffffffffffffffffffffffffffffffffff1663150b7a026121836117f8565b8786866040518563ffffffff1660e01b81526004016121a59493929190613ba5565b6020604051808303815f875af19250505080156121e057506040513d601f19601f820116820180604052508101906121dd9190613c03565b60015b612256573d805f811461220e576040519150601f19603f3d011682016040523d82523d5f602084013e612213565b606091505b505f81510361224e576040517fd1a57ed600000000000000000000000000000000000000000000000000000000815260040160405180910390fd5b805181602001fd5b63150b7a0260e01b7bffffffffffffffffffffffffffffffffffffffffffffffffffffffff1916817bffffffffffffffffffffffffffffffffffffffffffffffffffffffff191614915050949350505050565b5f826122b58584612442565b1490509392505050565b6122d8828260405180602001604052805f815250612496565b5050565b6060600d80546122eb9061328e565b80601f01602080910402602001604051908101604052809291908181526020018280546123179061328e565b80156123625780601f1061233957610100808354040283529160200191612362565b820191905f5260205f20905b81548152906001019060200180831161234557829003601f168201915b5050505050905090565b60605f600161237a846124a8565b0190505f8167ffffffffffffffff81111561239857612397612f78565b5b6040519080825280601f01601f1916602001820160405280156123ca5781602001600182028036833780820191505090505b5090505f82602001820190505b60011561242b578080600190039150507f3031323334353637383961626364656600000000000000000000000000000000600a86061a8153600a85816124205761241f613c2e565b5b0494505f85036123d7575b819350505050919050565b50505050565b50505050565b5f808290505f5b845181101561248b576124768286838151811061246957612468613c5b565b5b60200260200101516125f9565b9150808061248390613c88565b915050612449565b508091505092915050565b6124a38383836001612623565b505050565b5f805f90507a184f03e93ff9f4daa797ed6e38ed64bf6a1f0100000000000000008310612504577a184f03e93ff9f4daa797ed6e38ed64bf6a1f01000000000000000083816124fa576124f9613c2e565b5b0492506040810190505b6d04ee2d6d415b85acef81000000008310612541576d04ee2d6d415b85acef8100000000838161253757612536613c2e565b5b0492506020810190505b662386f26fc10000831061257057662386f26fc10000838161256657612565613c2e565b5b0492506010810190505b6305f5e1008310612599576305f5e100838161258f5761258e613c2e565b5b0492506008810190505b61271083106125be5761271083816125b4576125b3613c2e565b5b0492506004810190505b606483106125e157606483816125d7576125d6613c2e565b5b0492506002810190505b600a83106125f0576001810190505b80915050919050565b5f8183106126105761260b82846129d2565b61261b565b61261a83836129d2565b5b905092915050565b5f805490505f73ffffffffffffffffffffffffffffffffffffffff168573ffffffffffffffffffffffffffffffffffffffff160361268d576040517f2e07630000000000000000000000000000000000000000000000000000000000815260040160405180910390fd5b5f84036126c6576040517fb562e8dd00000000000000000000000000000000000000000000000000000000815260040160405180910390fd5b6126d25f868387612436565b8360055f8773ffffffffffffffffffffffffffffffffffffffff1673ffffffffffffffffffffffffffffffffffffffff1681526020019081526020015f205f015f8282829054906101000a900467ffffffffffffffff160192506101000a81548167ffffffffffffffff021916908367ffffffffffffffff1602179055508360055f8773ffffffffffffffffffffffffffffffffffffffff1673ffffffffffffffffffffffffffffffffffffffff1681526020019081526020015f205f0160088282829054906101000a900467ffffffffffffffff160192506101000a81548167ffffffffffffffff021916908367ffffffffffffffff1602179055508460045f8381526020019081526020015f205f015f6101000a81548173ffffffffffffffffffffffffffffffffffffffff021916908373ffffffffffffffffffffffffffffffffffffffff1602179055504260045f8381526020019081526020015f205f0160146101000a81548167ffffffffffffffff021916908367ffffffffffffffff1602179055505f8190505f858201905083801561288c575061288b8773ffffffffffffffffffffffffffffffffffffffff1661213c565b5b1561294d575b818773ffffffffffffffffffffffffffffffffffffffff165f73ffffffffffffffffffffffffffffffffffffffff167fddf252ad1be2c89b69c2b068fc378daa952ba7f163c4a11628f55a4df523b3ef60405160405180910390a46128ff5f88848060010195508861215e565b612935576040517fd1a57ed600000000000000000000000000000000000000000000000000000000815260040160405180910390fd5b80820361289257825f5414612948575f80fd5b6129b7565b5b818060010192508773ffffffffffffffffffffffffffffffffffffffff165f73ffffffffffffffffffffffffffffffffffffffff167fddf252ad1be2c89b69c2b068fc378daa952ba7f163c4a11628f55a4df523b3ef60405160405180910390a480820361294e575b815f8190555050506129cb5f86838761243c565b5050505050565b5f825f528160205260405f20905092915050565b60405180606001604052805f73ffffffffffffffffffffffffffffffffffffffff1681526020015f67ffffffffffffffff1681526020015f151581525090565b5f604051905090565b5f80fd5b5f80fd5b5f7fffffffff0000000000000000000000000000000000000000000000000000000082169050919050565b612a6b81612a37565b8114612a75575f80fd5b50565b5f81359050612a8681612a62565b92915050565b5f60208284031215612aa157612aa0612a2f565b5b5f612aae84828501612a78565b91505092915050565b5f8115159050919050565b612acb81612ab7565b82525050565b5f602082019050612ae45f830184612ac2565b92915050565b5f81519050919050565b5f82825260208201905092915050565b5f5b83811015612b21578082015181840152602081019050612b06565b5f8484015250505050565b5f601f19601f8301169050919050565b5f612b4682612aea565b612b508185612af4565b9350612b60818560208601612b04565b612b6981612b2c565b840191505092915050565b5f6020820190508181035f830152612b8c8184612b3c565b905092915050565b5f819050919050565b612ba681612b94565b8114612bb0575f80fd5b50565b5f81359050612bc181612b9d565b92915050565b5f60208284031215612bdc57612bdb612a2f565b5b5f612be984828501612bb3565b91505092915050565b5f73ffffffffffffffffffffffffffffffffffffffff82169050919050565b5f612c1b82612bf2565b9050919050565b612c2b81612c11565b82525050565b5f602082019050612c445f830184612c22565b92915050565b612c5381612c11565b8114612c5d575f80fd5b50565b5f81359050612c6e81612c4a565b92915050565b5f8060408385031215612c8a57612c89612a2f565b5b5f612c9785828601612c60565b9250506020612ca885828601612bb3565b9150509250929050565b612cbb81612b94565b82525050565b5f602082019050612cd45f830184612cb2565b92915050565b7f4e487b71000000000000000000000000000000000000000000000000000000005f52602160045260245ffd5b60048110612d1857612d17612cda565b5b50565b5f819050612d2882612d07565b919050565b5f612d3782612d1b565b9050919050565b612d4781612d2d565b82525050565b5f602082019050612d605f830184612d3e565b92915050565b5f805f60608486031215612d7d57612d7c612a2f565b5b5f612d8a86828701612c60565b9350506020612d9b86828701612c60565b9250506040612dac86828701612bb3565b9150509250925092565b60048110612dc2575f80fd5b50565b5f81359050612dd381612db6565b92915050565b5f60208284031215612dee57612ded612a2f565b5b5f612dfb84828501612dc5565b91505092915050565b5f80fd5b5f80fd5b5f80fd5b5f8083601f840112612e2557612e24612e04565b5b8235905067ffffffffffffffff811115612e4257612e41612e08565b5b602083019150836001820283011115612e5e57612e5d612e0c565b5b9250929050565b5f8060208385031215612e7b57612e7a612a2f565b5b5f83013567ffffffffffffffff811115612e9857612e97612a33565b5b612ea485828601612e10565b92509250509250929050565b5f60208284031215612ec557612ec4612a2f565b5b5f612ed284828501612c60565b91505092915050565b5f819050919050565b612eed81612edb565b82525050565b5f602082019050612f065f830184612ee4565b92915050565b612f1581612ab7565b8114612f1f575f80fd5b50565b5f81359050612f3081612f0c565b92915050565b5f8060408385031215612f4c57612f4b612a2f565b5b5f612f5985828601612c60565b9250506020612f6a85828601612f22565b9150509250929050565b5f80fd5b7f4e487b71000000000000000000000000000000000000000000000000000000005f52604160045260245ffd5b612fae82612b2c565b810181811067ffffffffffffffff82111715612fcd57612fcc612f78565b5b80604052505050565b5f612fdf612a26565b9050612feb8282612fa5565b919050565b5f67ffffffffffffffff82111561300a57613009612f78565b5b61301382612b2c565b9050602081019050919050565b828183375f83830152505050565b5f61304061303b84612ff0565b612fd6565b90508281526020810184848401111561305c5761305b612f74565b5b613067848285613020565b509392505050565b5f82601f83011261308357613082612e04565b5b813561309384826020860161302e565b91505092915050565b5f805f80608085870312156130b4576130b3612a2f565b5b5f6130c187828801612c60565b94505060206130d287828801612c60565b93505060406130e387828801612bb3565b925050606085013567ffffffffffffffff81111561310457613103612a33565b5b6131108782880161306f565b91505092959194509250565b5f8083601f84011261313157613130612e04565b5b8235905067ffffffffffffffff81111561314e5761314d612e08565b5b60208301915083602082028301111561316a57613169612e0c565b5b9250929050565b5f805f6040848603121561318857613187612a2f565b5b5f61319586828701612bb3565b935050602084013567ffffffffffffffff8111156131b6576131b5612a33565b5b6131c28682870161311c565b92509250509250925092565b6131d781612edb565b81146131e1575f80fd5b50565b5f813590506131f2816131ce565b92915050565b5f6020828403121561320d5761320c612a2f565b5b5f61321a848285016131e4565b91505092915050565b5f806040838503121561323957613238612a2f565b5b5f61324685828601612c60565b925050602061325785828601612c60565b9150509250929050565b7f4e487b71000000000000000000000000000000000000000000000000000000005f52602260045260245ffd5b5f60028204905060018216806132a557607f821691505b6020821081036132b8576132b7613261565b5b50919050565b5f81905092915050565b50565b5f6132d65f836132be565b91506132e1826132c8565b5f82019050919050565b5f6132f5826132cb565b9150819050919050565b5f82905092915050565b5f819050815f5260205f209050919050565b5f6020601f8301049050919050565b5f82821b905092915050565b5f600883026133657fffffffffffffffffffffffffffffffffffffffffffffffffffffffffffffffff8261332a565b61336f868361332a565b95508019841693508086168417925050509392505050565b5f819050919050565b5f6133aa6133a56133a084612b94565b613387565b612b94565b9050919050565b5f819050919050565b6133c383613390565b6133d76133cf826133b1565b848454613336565b825550505050565b5f90565b6133eb6133df565b6133f68184846133ba565b505050565b5b818110156134195761340e5f826133e3565b6001810190506133fc565b5050565b601f82111561345e5761342f81613309565b6134388461331b565b81016020851015613447578190505b61345b6134538561331b565b8301826133fb565b50505b505050565b5f82821c905092915050565b5f61347e5f1984600802613463565b1980831691505092915050565b5f613496838361346f565b9150826002028217905092915050565b6134b083836132ff565b67ffffffffffffffff8111156134c9576134c8612f78565b5b6134d3825461328e565b6134de82828561341d565b5f601f83116001811461350b575f84156134f9578287013590505b613503858261348b565b86555061356a565b601f19841661351986613309565b5f5b828110156135405784890135825560018201915060208501945060208101905061351b565b8683101561355d5784890135613559601f89168261346f565b8355505b6001600288020188555050505b50505050505050565b7f5468652077686974656c6973742073616c65206973206e6f7420656e61626c655f8201527f6421000000000000000000000000000000000000000000000000000000000000602082015250565b5f6135cd602283612af4565b91506135d882613573565b604082019050919050565b5f6020820190508181035f8301526135fa816135c1565b9050919050565b7f4e487b71000000000000000000000000000000000000000000000000000000005f52601160045260245ffd5b5f61363882612b94565b915061364383612b94565b925082820261365181612b94565b9150828204841483151761366857613667613601565b5b5092915050565b7f496e73756666696369656e742066756e647321000000000000000000000000005f82015250565b5f6136a3601383612af4565b91506136ae8261366f565b602082019050919050565b5f6020820190508181035f8301526136d081613697565b9050919050565b7f496e76616c6964206d696e7420616d6f756e74210000000000000000000000005f82015250565b5f61370b601483612af4565b9150613716826136d7565b602082019050919050565b5f6020820190508181035f830152613738816136ff565b9050919050565b5f61374982612b94565b915061375483612b94565b925082820190508082111561376c5761376b613601565b5b92915050565b7f4d617820737570706c79206578636565646564210000000000000000000000005f82015250565b5f6137a6601483612af4565b91506137b182613772565b602082019050919050565b5f6020820190508181035f8301526137d38161379a565b9050919050565b5f819050919050565b6137f46137ef82612edb565b6137da565b82525050565b5f61380582846137e3565b60208201915081905092915050565b7f457863656564206d6178696d756d20616c6c6f776c697374206d696e7420616d5f8201527f6f756e7420666f72206561636820616464726573732100000000000000000000602082015250565b5f61386e603683612af4565b915061387982613814565b604082019050919050565b5f6020820190508181035f83015261389b81613862565b9050919050565b7f41646472657373206973206e6f7420696e20616c6c6f776c69737421000000005f82015250565b5f6138d6601c83612af4565b91506138e1826138a2565b602082019050919050565b5f6020820190508181035f830152613903816138ca565b9050919050565b7f457863656564206d6178696d756d2077686974656c697374206d696e7420616d5f8201527f6f756e7420666f72206561636820616464726573732100000000000000000000602082015250565b5f613964603683612af4565b915061396f8261390a565b604082019050919050565b5f6020820190508181035f83015261399181613958565b9050919050565b7f41646472657373206973206e6f7420696e2077686974656c69737421000000005f82015250565b5f6139cc601c83612af4565b91506139d782613998565b602082019050919050565b5f6020820190508181035f8301526139f9816139c0565b9050919050565b5f81905092915050565b5f613a1482612aea565b613a1e8185613a00565b9350613a2e818560208601612b04565b80840191505092915050565b5f613a458285613a0a565b9150613a518284613a0a565b91508190509392505050565b7f4f776e61626c653a206e6577206f776e657220697320746865207a65726f20615f8201527f6464726573730000000000000000000000000000000000000000000000000000602082015250565b5f613ab7602683612af4565b9150613ac282613a5d565b604082019050919050565b5f6020820190508181035f830152613ae481613aab565b9050919050565b7f4f776e61626c653a2063616c6c6572206973206e6f7420746865206f776e65725f82015250565b5f613b1f602083612af4565b9150613b2a82613aeb565b602082019050919050565b5f6020820190508181035f830152613b4c81613b13565b9050919050565b5f81519050919050565b5f82825260208201905092915050565b5f613b7782613b53565b613b818185613b5d565b9350613b91818560208601612b04565b613b9a81612b2c565b840191505092915050565b5f608082019050613bb85f830187612c22565b613bc56020830186612c22565b613bd26040830185612cb2565b8181036060830152613be48184613b6d565b905095945050505050565b5f81519050613bfd81612a62565b92915050565b5f60208284031215613c1857613c17612a2f565b5b5f613c2584828501613bef565b91505092915050565b7f4e487b71000000000000000000000000000000000000000000000000000000005f52601260045260245ffd5b7f4e487b71000000000000000000000000000000000000000000000000000000005f52603260045260245ffd5b5f613c9282612b94565b91507fffffffffffffffffffffffffffffffffffffffffffffffffffffffffffffffff8203613cc457613cc3613601565b5b60018201905091905056fea26469706673582212203223b1477857e4f3dcb7b5c81d25716da1fd51753af5616ab67ed01fc089d99764736f6c63430008150033",
  "linkReferences": {},
  "deployedLinkReferences": {}
}