{
  "_format": "hh-sol-artifact-1",
  "contractName": "GroundUp721A",
  "sourceName": "contracts/GroundUp721A.sol",
  "abi": [
    {
      "inputs": [],
      "stateMutability": "nonpayable",
      "type": "constructor"
    },
    {
      "inputs": [],
      "name": "ApprovalCallerNotOwnerNorApproved",
      "type": "error"
    },
    {
      "inputs": [],
      "name": "ApprovalQueryForNonexistentToken",
      "type": "error"
    },
    {
      "inputs": [],
      "name": "ApprovalToCurrentOwner",
      "type": "error"
    },
    {
      "inputs": [],
      "name": "ApproveToCaller",
      "type": "error"
    },
    {
      "inputs": [],
      "name": "BalanceQueryForZeroAddress",
      "type": "error"
    },
    {
      "inputs": [],
      "name": "MintToZeroAddress",
      "type": "error"
    },
    {
      "inputs": [],
      "name": "MintZeroQuantity",
      "type": "error"
    },
    {
      "inputs": [],
      "name": "OwnerQueryForNonexistentToken",
      "type": "error"
    },
    {
      "inputs": [],
      "name": "TransferCallerNotOwnerNorApproved",
      "type": "error"
    },
    {
      "inputs": [],
      "name": "TransferFromIncorrectOwner",
      "type": "error"
    },
    {
      "inputs": [],
      "name": "TransferToNonERC721ReceiverImplementer",
      "type": "error"
    },
    {
      "inputs": [],
      "name": "TransferToZeroAddress",
      "type": "error"
    },
    {
      "anonymous": false,
      "inputs": [
        {
          "indexed": true,
          "internalType": "address",
          "name": "owner",
          "type": "address"
        },
        {
          "indexed": true,
          "internalType": "address",
          "name": "approved",
          "type": "address"
        },
        {
          "indexed": true,
          "internalType": "uint256",
          "name": "tokenId",
          "type": "uint256"
        }
      ],
      "name": "Approval",
      "type": "event"
    },
    {
      "anonymous": false,
      "inputs": [
        {
          "indexed": true,
          "internalType": "address",
          "name": "owner",
          "type": "address"
        },
        {
          "indexed": true,
          "internalType": "address",
          "name": "operator",
          "type": "address"
        },
        {
          "indexed": false,
          "internalType": "bool",
          "name": "approved",
          "type": "bool"
        }
      ],
      "name": "ApprovalForAll",
      "type": "event"
    },
    {
      "anonymous": false,
      "inputs": [
        {
          "indexed": true,
          "internalType": "address",
          "name": "previousOwner",
          "type": "address"
        },
        {
          "indexed": true,
          "internalType": "address",
          "name": "newOwner",
          "type": "address"
        }
      ],
      "name": "OwnershipTransferred",
      "type": "event"
    },
    {
      "anonymous": false,
      "inputs": [
        {
          "indexed": true,
          "internalType": "address",
          "name": "from",
          "type": "address"
        },
        {
          "indexed": true,
          "internalType": "address",
          "name": "to",
          "type": "address"
        },
        {
          "indexed": true,
          "internalType": "uint256",
          "name": "tokenId",
          "type": "uint256"
        }
      ],
      "name": "Transfer",
      "type": "event"
    },
    {
      "inputs": [
        {
          "internalType": "address",
          "name": "",
          "type": "address"
        }
      ],
      "name": "Firstcome",
      "outputs": [
        {
          "internalType": "uint256",
          "name": "",
          "type": "uint256"
        }
      ],
      "stateMutability": "view",
      "type": "function"
    },
    {
      "inputs": [
        {
          "internalType": "address",
          "name": "add",
          "type": "address"
        },
        {
          "internalType": "bytes32",
          "name": "merkleRoot",
          "type": "bytes32"
        },
        {
          "internalType": "bytes32[]",
          "name": "_merkleProof",
          "type": "bytes32[]"
        }
      ],
      "name": "Merkletest",
      "outputs": [
        {
          "internalType": "string",
          "name": "",
          "type": "string"
        }
      ],
      "stateMutability": "nonpayable",
      "type": "function"
    },
    {
      "inputs": [
        {
          "internalType": "uint256",
          "name": "_mintAmount",
          "type": "uint256"
        },
        {
          "internalType": "bytes32[]",
          "name": "_merkleProof",
          "type": "bytes32[]"
        }
      ],
      "name": "Mint",
      "outputs": [],
      "stateMutability": "payable",
      "type": "function"
    },
    {
      "inputs": [
        {
          "internalType": "address",
          "name": "",
          "type": "address"
        }
      ],
      "name": "Public",
      "outputs": [
        {
          "internalType": "uint256",
          "name": "",
          "type": "uint256"
        }
      ],
      "stateMutability": "view",
      "type": "function"
    },
    {
      "inputs": [
        {
          "internalType": "address",
          "name": "to",
          "type": "address"
        },
        {
          "internalType": "uint256",
          "name": "tokenId",
          "type": "uint256"
        }
      ],
      "name": "approve",
      "outputs": [],
      "stateMutability": "nonpayable",
      "type": "function"
    },
    {
      "inputs": [
        {
          "internalType": "address",
          "name": "owner",
          "type": "address"
        }
      ],
      "name": "balanceOf",
      "outputs": [
        {
          "internalType": "uint256",
          "name": "",
          "type": "uint256"
        }
      ],
      "stateMutability": "view",
      "type": "function"
    },
    {
      "inputs": [],
      "name": "cost",
      "outputs": [
        {
          "internalType": "uint256",
          "name": "",
          "type": "uint256"
        }
      ],
      "stateMutability": "view",
      "type": "function"
    },
    {
      "inputs": [
        {
          "internalType": "uint256",
          "name": "tokenId",
          "type": "uint256"
        }
      ],
      "name": "getApproved",
      "outputs": [
        {
          "internalType": "address",
          "name": "",
          "type": "address"
        }
      ],
      "stateMutability": "view",
      "type": "function"
    },
    {
      "inputs": [],
      "name": "hiddenMetadataUri",
      "outputs": [
        {
          "internalType": "string",
          "name": "",
          "type": "string"
        }
      ],
      "stateMutability": "view",
      "type": "function"
    },
    {
      "inputs": [
        {
          "internalType": "address",
          "name": "owner",
          "type": "address"
        },
        {
          "internalType": "address",
          "name": "operator",
          "type": "address"
        }
      ],
      "name": "isApprovedForAll",
      "outputs": [
        {
          "internalType": "bool",
          "name": "",
          "type": "bool"
        }
      ],
      "stateMutability": "view",
      "type": "function"
    },
    {
      "inputs": [],
      "name": "maxFirstcomeMintAmountPerTx",
      "outputs": [
        {
          "internalType": "uint256",
          "name": "",
          "type": "uint256"
        }
      ],
      "stateMutability": "view",
      "type": "function"
    },
    {
      "inputs": [],
      "name": "maxMintAmountPerTx",
      "outputs": [
        {
          "internalType": "uint256",
          "name": "",
          "type": "uint256"
        }
      ],
      "stateMutability": "view",
      "type": "function"
    },
    {
      "inputs": [],
      "name": "maxSupply",
      "outputs": [
        {
          "internalType": "uint256",
          "name": "",
          "type": "uint256"
        }
      ],
      "stateMutability": "view",
      "type": "function"
    },
    {
      "inputs": [],
      "name": "merkleRoot",
      "outputs": [
        {
          "internalType": "bytes32",
          "name": "",
          "type": "bytes32"
        }
      ],
      "stateMutability": "view",
      "type": "function"
    },
    {
      "inputs": [
        {
          "internalType": "uint256",
          "name": "_mintAmount",
          "type": "uint256"
        },
        {
          "internalType": "address",
          "name": "_receiver",
          "type": "address"
        }
      ],
      "name": "mintForAddress",
      "outputs": [],
      "stateMutability": "nonpayable",
      "type": "function"
    },
    {
      "inputs": [],
      "name": "minternumber",
      "outputs": [
        {
          "internalType": "uint256",
          "name": "",
          "type": "uint256"
        }
      ],
      "stateMutability": "view",
      "type": "function"
    },
    {
      "inputs": [],
      "name": "name",
      "outputs": [
        {
          "internalType": "string",
          "name": "",
          "type": "string"
        }
      ],
      "stateMutability": "view",
      "type": "function"
    },
    {
      "inputs": [],
      "name": "owner",
      "outputs": [
        {
          "internalType": "address",
          "name": "",
          "type": "address"
        }
      ],
      "stateMutability": "view",
      "type": "function"
    },
    {
      "inputs": [
        {
          "internalType": "uint256",
          "name": "tokenId",
          "type": "uint256"
        }
      ],
      "name": "ownerOf",
      "outputs": [
        {
          "internalType": "address",
          "name": "",
          "type": "address"
        }
      ],
      "stateMutability": "view",
      "type": "function"
    },
    {
      "inputs": [],
      "name": "renounceOwnership",
      "outputs": [],
      "stateMutability": "nonpayable",
      "type": "function"
    },
    {
      "inputs": [],
      "name": "revealed",
      "outputs": [
        {
          "internalType": "bool",
          "name": "",
          "type": "bool"
        }
      ],
      "stateMutability": "view",
      "type": "function"
    },
    {
      "inputs": [
        {
          "internalType": "address",
          "name": "from",
          "type": "address"
        },
        {
          "internalType": "address",
          "name": "to",
          "type": "address"
        },
        {
          "internalType": "uint256",
          "name": "tokenId",
          "type": "uint256"
        }
      ],
      "name": "safeTransferFrom",
      "outputs": [],
      "stateMutability": "nonpayable",
      "type": "function"
    },
    {
      "inputs": [
        {
          "internalType": "address",
          "name": "from",
          "type": "address"
        },
        {
          "internalType": "address",
          "name": "to",
          "type": "address"
        },
        {
          "internalType": "uint256",
          "name": "tokenId",
          "type": "uint256"
        },
        {
          "internalType": "bytes",
          "name": "_data",
          "type": "bytes"
        }
      ],
      "name": "safeTransferFrom",
      "outputs": [],
      "stateMutability": "nonpayable",
      "type": "function"
    },
    {
      "inputs": [
        {
          "internalType": "address",
          "name": "operator",
          "type": "address"
        },
        {
          "internalType": "bool",
          "name": "approved",
          "type": "bool"
        }
      ],
      "name": "setApprovalForAll",
      "outputs": [],
      "stateMutability": "nonpayable",
      "type": "function"
    },
    {
      "inputs": [
        {
          "internalType": "bytes32",
          "name": "_merkleRoot",
          "type": "bytes32"
        }
      ],
      "name": "setMerkleRoot",
      "outputs": [],
      "stateMutability": "nonpayable",
      "type": "function"
    },
    {
      "inputs": [
        {
          "internalType": "bool",
          "name": "_state",
          "type": "bool"
        }
      ],
      "name": "setRevealed",
      "outputs": [],
      "stateMutability": "nonpayable",
      "type": "function"
    },
    {
      "inputs": [
        {
          "internalType": "enum GroundUp721A.Status",
          "name": "_status",
          "type": "uint8"
        }
      ],
      "name": "setStatus",
      "outputs": [],
      "stateMutability": "nonpayable",
      "type": "function"
    },
    {
      "inputs": [
        {
          "internalType": "string",
          "name": "_uriPrefix",
          "type": "string"
        }
      ],
      "name": "setUriPrefix",
      "outputs": [],
      "stateMutability": "nonpayable",
      "type": "function"
    },
    {
      "inputs": [
        {
          "internalType": "string",
          "name": "_uriSuffix",
          "type": "string"
        }
      ],
      "name": "setUriSuffix",
      "outputs": [],
      "stateMutability": "nonpayable",
      "type": "function"
    },
    {
      "inputs": [],
      "name": "status",
      "outputs": [
        {
          "internalType": "enum GroundUp721A.Status",
          "name": "",
          "type": "uint8"
        }
      ],
      "stateMutability": "view",
      "type": "function"
    },
    {
      "inputs": [
        {
          "internalType": "bytes4",
          "name": "interfaceId",
          "type": "bytes4"
        }
      ],
      "name": "supportsInterface",
      "outputs": [
        {
          "internalType": "bool",
          "name": "",
          "type": "bool"
        }
      ],
      "stateMutability": "view",
      "type": "function"
    },
    {
      "inputs": [],
      "name": "symbol",
      "outputs": [
        {
          "internalType": "string",
          "name": "",
          "type": "string"
        }
      ],
      "stateMutability": "view",
      "type": "function"
    },
    {
      "inputs": [
        {
          "internalType": "uint256",
          "name": "_tokenId",
          "type": "uint256"
        }
      ],
      "name": "tokenURI",
      "outputs": [
        {
          "internalType": "string",
          "name": "",
          "type": "string"
        }
      ],
      "stateMutability": "view",
      "type": "function"
    },
    {
      "inputs": [],
      "name": "totalSupply",
      "outputs": [
        {
          "internalType": "uint256",
          "name": "",
          "type": "uint256"
        }
      ],
      "stateMutability": "view",
      "type": "function"
    },
    {
      "inputs": [
        {
          "internalType": "address",
          "name": "from",
          "type": "address"
        },
        {
          "internalType": "address",
          "name": "to",
          "type": "address"
        },
        {
          "internalType": "uint256",
          "name": "tokenId",
          "type": "uint256"
        }
      ],
      "name": "transferFrom",
      "outputs": [],
      "stateMutability": "nonpayable",
      "type": "function"
    },
    {
      "inputs": [
        {
          "internalType": "address",
          "name": "newOwner",
          "type": "address"
        }
      ],
      "name": "transferOwnership",
      "outputs": [],
      "stateMutability": "nonpayable",
      "type": "function"
    },
    {
      "inputs": [],
      "name": "uriPrefix",
      "outputs": [
        {
          "internalType": "string",
          "name": "",
          "type": "string"
        }
      ],
      "stateMutability": "view",
      "type": "function"
    },
    {
      "inputs": [],
      "name": "uriSuffix",
      "outputs": [
        {
          "internalType": "string",
          "name": "",
          "type": "string"
        }
      ],
      "stateMutability": "view",
      "type": "function"
    },
    {
      "inputs": [
        {
          "internalType": "address",
          "name": "_owner",
          "type": "address"
        }
      ],
      "name": "walletOfOwner",
      "outputs": [
        {
          "internalType": "uint256[]",
          "name": "",
          "type": "uint256[]"
        }
      ],
      "stateMutability": "view",
      "type": "function"
    },
    {
      "inputs": [],
      "name": "withdraw",
      "outputs": [],
      "stateMutability": "nonpayable",
      "type": "function"
    }
  ],
  "bytecode": "0x608060405260405180602001604052806000815250600e90805190602001906200002b929190620003bd565b506040518060400160405280600581526020017f2e6a736f6e000000000000000000000000000000000000000000000000000000815250600f908051906020019062000079929190620003bd565b5060405180608001604052806044815260200162004cbd6044913960109080519060200190620000ab929190620003bd565b5066470de4df8200006011556109c46012556002601355600360145560016015556000601660006101000a81548160ff021916908315150217905550348015620000f457600080fd5b506040518060400160405280601081526020017f47726f756e6455702053747564696f73000000000000000000000000000000008152506040518060400160405280600381526020017f4755530000000000000000000000000000000000000000000000000000000000815250816002908051906020019062000179929190620003bd565b50806003908051906020019062000192929190620003bd565b50620001a3620001eb60201b60201c565b6000819055505050620001cb620001bf620001f460201b60201c565b620001fc60201b60201c565b6001600981905550620001e56000620002c260201b60201c565b62000584565b60006001905090565b600033905090565b6000600860009054906101000a900473ffffffffffffffffffffffffffffffffffffffff16905081600860006101000a81548173ffffffffffffffffffffffffffffffffffffffff021916908373ffffffffffffffffffffffffffffffffffffffff1602179055508173ffffffffffffffffffffffffffffffffffffffff168173ffffffffffffffffffffffffffffffffffffffff167f8be0079c531659141344cd1fd0a4f28419497f9722a3daafe3b4186f6b6457e060405160405180910390a35050565b620002d26200030260201b60201c565b80600a60006101000a81548160ff02191690836003811115620002fa57620002f96200046d565b5b021790555050565b62000312620001f460201b60201c565b73ffffffffffffffffffffffffffffffffffffffff16620003386200039360201b60201c565b73ffffffffffffffffffffffffffffffffffffffff161462000391576040517f08c379a00000000000000000000000000000000000000000000000000000000081526004016200038890620004fd565b60405180910390fd5b565b6000600860009054906101000a900473ffffffffffffffffffffffffffffffffffffffff16905090565b828054620003cb906200054e565b90600052602060002090601f016020900481019282620003ef57600085556200043b565b82601f106200040a57805160ff19168380011785556200043b565b828001600101855582156200043b579182015b828111156200043a5782518255916020019190600101906200041d565b5b5090506200044a91906200044e565b5090565b5b80821115620004695760008160009055506001016200044f565b5090565b7f4e487b7100000000000000000000000000000000000000000000000000000000600052602160045260246000fd5b600082825260208201905092915050565b7f4f776e61626c653a2063616c6c6572206973206e6f7420746865206f776e6572600082015250565b6000620004e56020836200049c565b9150620004f282620004ad565b602082019050919050565b600060208201905081810360008301526200051881620004d6565b9050919050565b7f4e487b7100000000000000000000000000000000000000000000000000000000600052602260045260246000fd5b600060028204905060018216806200056757607f821691505b602082108114156200057e576200057d6200051f565b5b50919050565b61472980620005946000396000f3fe60806040526004361061023b5760003560e01c80636352211e1161012e578063a45ba8e7116100ab578063d9fa5de21161006f578063d9fa5de21461087a578063e0a80853146108a5578063e985e9c5146108ce578063efbd73f41461090b578063f2fde38b146109345761023b565b8063a45ba8e714610781578063b88d4fde146107ac578063c87b56dd146107d5578063d5abeb0114610812578063d5ded8fb1461083d5761023b565b80638278806d116100f25780638278806d1461069a5780638da5cb5b146106d757806394354fd01461070257806395d89b411461072d578063a22cb465146107585761023b565b80636352211e146105b757806370a08231146105f4578063715018a6146106315780637cb64759146106485780637ec4a659146106715761023b565b8063218c23c2116101bc57806342842e0e1161018057806342842e0e146104d0578063438b6300146104f957806351830227146105365780635503a0e81461056157806362b99ad41461058c5761023b565b8063218c23c21461041157806323b872dd1461043c5780632e49d78b146104655780632eb4a7ab1461048e5780633ccfd60b146104b95761023b565b806313faede61161020357806313faede61461034b57806316ba10e01461037657806318160ddd1461039f5780631dbe2686146103ca578063200d2ed2146103e65761023b565b806301ffc9a71461024057806306fdde031461027d578063081812fc146102a8578063095ea7b3146102e55780630ec55bff1461030e575b600080fd5b34801561024c57600080fd5b506102676004803603810190610262919061337e565b61095d565b60405161027491906133c6565b60405180910390f35b34801561028957600080fd5b50610292610a3f565b60405161029f919061347a565b60405180910390f35b3480156102b457600080fd5b506102cf60048036038101906102ca91906134d2565b610ad1565b6040516102dc9190613540565b60405180910390f35b3480156102f157600080fd5b5061030c60048036038101906103079190613587565b610b4d565b005b34801561031a57600080fd5b50610335600480360381019061033091906135c7565b610c58565b6040516103429190613603565b60405180910390f35b34801561035757600080fd5b50610360610c70565b60405161036d9190613603565b60405180910390f35b34801561038257600080fd5b5061039d60048036038101906103989190613753565b610c76565b005b3480156103ab57600080fd5b506103b4610c98565b6040516103c19190613603565b60405180910390f35b6103e460048036038101906103df91906137fc565b610caf565b005b3480156103f257600080fd5b506103fb6111fa565b60405161040891906138d3565b60405180910390f35b34801561041d57600080fd5b5061042661120d565b6040516104339190613603565b60405180910390f35b34801561044857600080fd5b50610463600480360381019061045e91906138ee565b611213565b005b34801561047157600080fd5b5061048c60048036038101906104879190613966565b611223565b005b34801561049a57600080fd5b506104a3611258565b6040516104b091906139ac565b60405180910390f35b3480156104c557600080fd5b506104ce61125e565b005b3480156104dc57600080fd5b506104f760048036038101906104f291906138ee565b6112f6565b005b34801561050557600080fd5b50610520600480360381019061051b91906135c7565b611316565b60405161052d9190613a85565b60405180910390f35b34801561054257600080fd5b5061054b611531565b60405161055891906133c6565b60405180910390f35b34801561056d57600080fd5b50610576611544565b604051610583919061347a565b60405180910390f35b34801561059857600080fd5b506105a16115d2565b6040516105ae919061347a565b60405180910390f35b3480156105c357600080fd5b506105de60048036038101906105d991906134d2565b611660565b6040516105eb9190613540565b60405180910390f35b34801561060057600080fd5b5061061b600480360381019061061691906135c7565b611676565b6040516106289190613603565b60405180910390f35b34801561063d57600080fd5b50610646611746565b005b34801561065457600080fd5b5061066f600480360381019061066a9190613ad3565b61175a565b005b34801561067d57600080fd5b5061069860048036038101906106939190613753565b61176c565b005b3480156106a657600080fd5b506106c160048036038101906106bc91906135c7565b61178e565b6040516106ce9190613603565b60405180910390f35b3480156106e357600080fd5b506106ec6117a6565b6040516106f99190613540565b60405180910390f35b34801561070e57600080fd5b506107176117d0565b6040516107249190613603565b60405180910390f35b34801561073957600080fd5b506107426117d6565b60405161074f919061347a565b60405180910390f35b34801561076457600080fd5b5061077f600480360381019061077a9190613b2c565b611868565b005b34801561078d57600080fd5b506107966119e0565b6040516107a3919061347a565b60405180910390f35b3480156107b857600080fd5b506107d360048036038101906107ce9190613c0d565b611a6e565b005b3480156107e157600080fd5b506107fc60048036038101906107f791906134d2565b611aea565b604051610809919061347a565b60405180910390f35b34801561081e57600080fd5b50610827611be3565b6040516108349190613603565b60405180910390f35b34801561084957600080fd5b50610864600480360381019061085f9190613c90565b611be9565b604051610871919061347a565b60405180910390f35b34801561088657600080fd5b5061088f611cea565b60405161089c9190613603565b60405180910390f35b3480156108b157600080fd5b506108cc60048036038101906108c79190613d04565b611cf0565b005b3480156108da57600080fd5b506108f560048036038101906108f09190613d31565b611d15565b60405161090291906133c6565b60405180910390f35b34801561091757600080fd5b50610932600480360381019061092d9190613d71565b611da9565b005b34801561094057600080fd5b5061095b600480360381019061095691906135c7565b611e16565b005b60007f80ac58cd000000000000000000000000000000000000000000000000000000007bffffffffffffffffffffffffffffffffffffffffffffffffffffffff1916827bffffffffffffffffffffffffffffffffffffffffffffffffffffffff19161480610a2857507f5b5e139f000000000000000000000000000000000000000000000000000000007bffffffffffffffffffffffffffffffffffffffffffffffffffffffff1916827bffffffffffffffffffffffffffffffffffffffffffffffffffffffff1916145b80610a385750610a3782611e9a565b5b9050919050565b606060028054610a4e90613de0565b80601f0160208091040260200160405190810160405280929190818152602001828054610a7a90613de0565b8015610ac75780601f10610a9c57610100808354040283529160200191610ac7565b820191906000526020600020905b815481529060010190602001808311610aaa57829003601f168201915b5050505050905090565b6000610adc82611f04565b610b12576040517fcf4700e400000000000000000000000000000000000000000000000000000000815260040160405180910390fd5b6006600083815260200190815260200160002060009054906101000a900473ffffffffffffffffffffffffffffffffffffffff169050919050565b6000610b5882611660565b90508073ffffffffffffffffffffffffffffffffffffffff168373ffffffffffffffffffffffffffffffffffffffff161415610bc0576040517f943f7b8c00000000000000000000000000000000000000000000000000000000815260040160405180910390fd5b8073ffffffffffffffffffffffffffffffffffffffff16610bdf611f52565b73ffffffffffffffffffffffffffffffffffffffff1614158015610c115750610c0f81610c0a611f52565b611d15565b155b15610c48576040517fcfb3b94200000000000000000000000000000000000000000000000000000000815260040160405180910390fd5b610c53838383611f5a565b505050565b600d6020528060005260406000206000915090505481565b60115481565b610c7e61200c565b80600f9080519060200190610c9492919061322c565b5050565b6000610ca261208a565b6001546000540303905090565b600380811115610cc257610cc161385c565b5b600a60009054906101000a900460ff166003811115610ce457610ce361385c565b5b14158015610d26575060006003811115610d0157610d0061385c565b5b600a60009054906101000a900460ff166003811115610d2357610d2261385c565b5b14155b610d65576040517f08c379a0000000000000000000000000000000000000000000000000000000008152600401610d5c90613e84565b60405180910390fd5b82601154610d739190613ed3565b341015610db5576040517f08c379a0000000000000000000000000000000000000000000000000000000008152600401610dac90613f79565b60405180910390fd5b60008311610df8576040517f08c379a0000000000000000000000000000000000000000000000000000000008152600401610def90613fe5565b60405180910390fd5b60125483610e04610c98565b610e0e9190614005565b1115610e4f576040517f08c379a0000000000000000000000000000000000000000000000000000000008152600401610e46906140a7565b60405180910390fd5b6000610e59611f52565b604051602001610e69919061410f565b604051602081830303815290604052805190602001209050610ecf838380806020026020016040519081016040528093929190818152602001838360200280828437600081840152601f19601f82011690508083019250505050505050600b5483612093565b610f0e576040517f08c379a0000000000000000000000000000000000000000000000000000000008152600401610f0590614176565b60405180910390fd5b60016003811115610f2257610f2161385c565b5b600a60009054906101000a900460ff166003811115610f4457610f4361385c565b5b141561106d57601354841115610f8f576040517f08c379a0000000000000000000000000000000000000000000000000000000008152600401610f8690613fe5565b60405180910390fd5b601354600c60003373ffffffffffffffffffffffffffffffffffffffff1673ffffffffffffffffffffffffffffffffffffffff1681526020019081526020016000205410611012576040517f08c379a0000000000000000000000000000000000000000000000000000000008152600401611009906141e2565b60405180910390fd5b83600c60003373ffffffffffffffffffffffffffffffffffffffff1673ffffffffffffffffffffffffffffffffffffffff16815260200190815260200160002060008282546110619190614005565b925050819055506111e3565b6015548411156110b2576040517f08c379a00000000000000000000000000000000000000000000000000000000081526004016110a990613fe5565b60405180910390fd5b6013546015546110c29190614005565b600c60003373ffffffffffffffffffffffffffffffffffffffff1673ffffffffffffffffffffffffffffffffffffffff16815260200190815260200160002054600d60003373ffffffffffffffffffffffffffffffffffffffff1673ffffffffffffffffffffffffffffffffffffffff1681526020019081526020016000205461114c9190614005565b1061118c576040517f08c379a0000000000000000000000000000000000000000000000000000000008152600401611183906141e2565b60405180910390fd5b83600d60003373ffffffffffffffffffffffffffffffffffffffff1673ffffffffffffffffffffffffffffffffffffffff16815260200190815260200160002060008282546111db9190614005565b925050819055505b6111f46111ee611f52565b856120aa565b50505050565b600a60009054906101000a900460ff1681565b60135481565b61121e8383836120c8565b505050565b61122b61200c565b80600a60006101000a81548160ff021916908360038111156112505761124f61385c565b5b021790555050565b600b5481565b61126661200c565b61126e6125b9565b60006112786117a6565b73ffffffffffffffffffffffffffffffffffffffff164760405161129b90614233565b60006040518083038185875af1925050503d80600081146112d8576040519150601f19603f3d011682016040523d82523d6000602084013e6112dd565b606091505b50509050806112eb57600080fd5b506112f4612609565b565b61131183838360405180602001604052806000815250611a6e565b505050565b6060600061132383611676565b905060008167ffffffffffffffff81111561134157611340613628565b5b60405190808252806020026020018201604052801561136f5781602001602082028036833780820191505090505b509050600061137c61208a565b90506000805b848210801561139357506012548311155b15611524576000600460008581526020019081526020016000206040518060600160405290816000820160009054906101000a900473ffffffffffffffffffffffffffffffffffffffff1673ffffffffffffffffffffffffffffffffffffffff1673ffffffffffffffffffffffffffffffffffffffff1681526020016000820160149054906101000a900467ffffffffffffffff1667ffffffffffffffff1667ffffffffffffffff16815260200160008201601c9054906101000a900460ff161515151581525050905080604001511580156114a05750600073ffffffffffffffffffffffffffffffffffffffff16816000015173ffffffffffffffffffffffffffffffffffffffff1614155b156114ad57806000015191505b8773ffffffffffffffffffffffffffffffffffffffff168273ffffffffffffffffffffffffffffffffffffffff16141561151057838584815181106114f5576114f4614248565b5b602002602001018181525050828061150c90614277565b9350505b838061151b90614277565b94505050611382565b8395505050505050919050565b601660009054906101000a900460ff1681565b600f805461155190613de0565b80601f016020809104026020016040519081016040528092919081815260200182805461157d90613de0565b80156115ca5780601f1061159f576101008083540402835291602001916115ca565b820191906000526020600020905b8154815290600101906020018083116115ad57829003601f168201915b505050505081565b600e80546115df90613de0565b80601f016020809104026020016040519081016040528092919081815260200182805461160b90613de0565b80156116585780601f1061162d57610100808354040283529160200191611658565b820191906000526020600020905b81548152906001019060200180831161163b57829003601f168201915b505050505081565b600061166b82612613565b600001519050919050565b60008073ffffffffffffffffffffffffffffffffffffffff168273ffffffffffffffffffffffffffffffffffffffff1614156116de576040517f8f4eb60400000000000000000000000000000000000000000000000000000000815260040160405180910390fd5b600560008373ffffffffffffffffffffffffffffffffffffffff1673ffffffffffffffffffffffffffffffffffffffff16815260200190815260200160002060000160009054906101000a900467ffffffffffffffff1667ffffffffffffffff169050919050565b61174e61200c565b61175860006128a2565b565b61176261200c565b80600b8190555050565b61177461200c565b80600e908051906020019061178a92919061322c565b5050565b600c6020528060005260406000206000915090505481565b6000600860009054906101000a900473ffffffffffffffffffffffffffffffffffffffff16905090565b60155481565b6060600380546117e590613de0565b80601f016020809104026020016040519081016040528092919081815260200182805461181190613de0565b801561185e5780601f106118335761010080835404028352916020019161185e565b820191906000526020600020905b81548152906001019060200180831161184157829003601f168201915b5050505050905090565b611870611f52565b73ffffffffffffffffffffffffffffffffffffffff168273ffffffffffffffffffffffffffffffffffffffff1614156118d5576040517fb06307db00000000000000000000000000000000000000000000000000000000815260040160405180910390fd5b80600760006118e2611f52565b73ffffffffffffffffffffffffffffffffffffffff1673ffffffffffffffffffffffffffffffffffffffff16815260200190815260200160002060008473ffffffffffffffffffffffffffffffffffffffff1673ffffffffffffffffffffffffffffffffffffffff16815260200190815260200160002060006101000a81548160ff0219169083151502179055508173ffffffffffffffffffffffffffffffffffffffff1661198f611f52565b73ffffffffffffffffffffffffffffffffffffffff167f17307eab39ab6107e8899845ad3d59bd9653f200f220920489ca2b5937696c31836040516119d491906133c6565b60405180910390a35050565b601080546119ed90613de0565b80601f0160208091040260200160405190810160405280929190818152602001828054611a1990613de0565b8015611a665780601f10611a3b57610100808354040283529160200191611a66565b820191906000526020600020905b815481529060010190602001808311611a4957829003601f168201915b505050505081565b611a798484846120c8565b611a988373ffffffffffffffffffffffffffffffffffffffff16612968565b8015611aad5750611aab8484848461298b565b155b15611ae4576040517fd1a57ed600000000000000000000000000000000000000000000000000000000815260040160405180910390fd5b50505050565b6060611af582611f04565b611b34576040517f08c379a0000000000000000000000000000000000000000000000000000000008152600401611b2b90614332565b60405180910390fd5b60001515601660009054906101000a900460ff1615151415611b82576010611b5b83612aeb565b604051602001611b6c929190614422565b6040516020818303038152906040529050611bde565b6000611b8c612bc3565b90506000815111611bac5760405180602001604052806000815250611bda565b80611bb684612aeb565b600f604051602001611bca93929190614446565b6040516020818303038152906040525b9150505b919050565b60125481565b6060611bf361200c565b600085604051602001611c06919061410f565b604051602081830303815290604052805190602001209050611c6a848480806020026020016040519081016040528093929190818152602001838360200280828437600081840152601f19601f820116905080830192505050505050508683612093565b611ca9576040517f08c379a0000000000000000000000000000000000000000000000000000000008152600401611ca090614176565b60405180910390fd5b6040518060400160405280600281526020017f4f4b000000000000000000000000000000000000000000000000000000000000815250915050949350505050565b60145481565b611cf861200c565b80601660006101000a81548160ff02191690831515021790555050565b6000600760008473ffffffffffffffffffffffffffffffffffffffff1673ffffffffffffffffffffffffffffffffffffffff16815260200190815260200160002060008373ffffffffffffffffffffffffffffffffffffffff1673ffffffffffffffffffffffffffffffffffffffff16815260200190815260200160002060009054906101000a900460ff16905092915050565b611db161200c565b60125482611dbd610c98565b611dc79190614005565b1115611e08576040517f08c379a0000000000000000000000000000000000000000000000000000000008152600401611dff906140a7565b60405180910390fd5b611e1281836120aa565b5050565b611e1e61200c565b600073ffffffffffffffffffffffffffffffffffffffff168173ffffffffffffffffffffffffffffffffffffffff161415611e8e576040517f08c379a0000000000000000000000000000000000000000000000000000000008152600401611e85906144e9565b60405180910390fd5b611e97816128a2565b50565b60007f01ffc9a7000000000000000000000000000000000000000000000000000000007bffffffffffffffffffffffffffffffffffffffffffffffffffffffff1916827bffffffffffffffffffffffffffffffffffffffffffffffffffffffff1916149050919050565b600081611f0f61208a565b11158015611f1e575060005482105b8015611f4b575060046000838152602001908152602001600020600001601c9054906101000a900460ff16155b9050919050565b600033905090565b826006600084815260200190815260200160002060006101000a81548173ffffffffffffffffffffffffffffffffffffffff021916908373ffffffffffffffffffffffffffffffffffffffff160217905550818373ffffffffffffffffffffffffffffffffffffffff168273ffffffffffffffffffffffffffffffffffffffff167f8c5be1e5ebec7d5bd14f71427d1e84f3dd0314c0f7b2291e5b200ac8c7c3b92560405160405180910390a4505050565b612014611f52565b73ffffffffffffffffffffffffffffffffffffffff166120326117a6565b73ffffffffffffffffffffffffffffffffffffffff1614612088576040517f08c379a000000000000000000000000000000000000000000000000000000000815260040161207f90614555565b60405180910390fd5b565b60006001905090565b6000826120a08584612c55565b1490509392505050565b6120c4828260405180602001604052806000815250612cab565b5050565b60006120d382612613565b90506000816000015173ffffffffffffffffffffffffffffffffffffffff166120fa611f52565b73ffffffffffffffffffffffffffffffffffffffff16148061212d575061212c8260000151612127611f52565b611d15565b5b80612172575061213b611f52565b73ffffffffffffffffffffffffffffffffffffffff1661215a84610ad1565b73ffffffffffffffffffffffffffffffffffffffff16145b9050806121ab576040517f59c896be00000000000000000000000000000000000000000000000000000000815260040160405180910390fd5b8473ffffffffffffffffffffffffffffffffffffffff16826000015173ffffffffffffffffffffffffffffffffffffffff1614612214576040517fa114810000000000000000000000000000000000000000000000000000000000815260040160405180910390fd5b600073ffffffffffffffffffffffffffffffffffffffff168473ffffffffffffffffffffffffffffffffffffffff16141561227b576040517fea553b3400000000000000000000000000000000000000000000000000000000815260040160405180910390fd5b6122888585856001612cbd565b6122986000848460000151611f5a565b6001600560008773ffffffffffffffffffffffffffffffffffffffff1673ffffffffffffffffffffffffffffffffffffffff16815260200190815260200160002060000160008282829054906101000a900467ffffffffffffffff160392506101000a81548167ffffffffffffffff021916908367ffffffffffffffff1602179055506001600560008673ffffffffffffffffffffffffffffffffffffffff1673ffffffffffffffffffffffffffffffffffffffff16815260200190815260200160002060000160008282829054906101000a900467ffffffffffffffff160192506101000a81548167ffffffffffffffff021916908367ffffffffffffffff160217905550836004600085815260200190815260200160002060000160006101000a81548173ffffffffffffffffffffffffffffffffffffffff021916908373ffffffffffffffffffffffffffffffffffffffff160217905550426004600085815260200190815260200160002060000160146101000a81548167ffffffffffffffff021916908367ffffffffffffffff1602179055506000600184019050600073ffffffffffffffffffffffffffffffffffffffff166004600083815260200190815260200160002060000160009054906101000a900473ffffffffffffffffffffffffffffffffffffffff1673ffffffffffffffffffffffffffffffffffffffff161415612549576000548110156125485782600001516004600083815260200190815260200160002060000160006101000a81548173ffffffffffffffffffffffffffffffffffffffff021916908373ffffffffffffffffffffffffffffffffffffffff16021790555082602001516004600083815260200190815260200160002060000160146101000a81548167ffffffffffffffff021916908367ffffffffffffffff1602179055505b5b50828473ffffffffffffffffffffffffffffffffffffffff168673ffffffffffffffffffffffffffffffffffffffff167fddf252ad1be2c89b69c2b068fc378daa952ba7f163c4a11628f55a4df523b3ef60405160405180910390a46125b28585856001612cc3565b5050505050565b600260095414156125ff576040517f08c379a00000000000000000000000000000000000000000000000000000000081526004016125f6906145c1565b60405180910390fd5b6002600981905550565b6001600981905550565b61261b6132b2565b60008290508061262961208a565b11158015612638575060005481105b1561286b576000600460008381526020019081526020016000206040518060600160405290816000820160009054906101000a900473ffffffffffffffffffffffffffffffffffffffff1673ffffffffffffffffffffffffffffffffffffffff1673ffffffffffffffffffffffffffffffffffffffff1681526020016000820160149054906101000a900467ffffffffffffffff1667ffffffffffffffff1667ffffffffffffffff16815260200160008201601c9054906101000a900460ff1615151515815250509050806040015161286957600073ffffffffffffffffffffffffffffffffffffffff16816000015173ffffffffffffffffffffffffffffffffffffffff161461274d57809250505061289d565b5b60011561286857818060019003925050600460008381526020019081526020016000206040518060600160405290816000820160009054906101000a900473ffffffffffffffffffffffffffffffffffffffff1673ffffffffffffffffffffffffffffffffffffffff1673ffffffffffffffffffffffffffffffffffffffff1681526020016000820160149054906101000a900467ffffffffffffffff1667ffffffffffffffff1667ffffffffffffffff16815260200160008201601c9054906101000a900460ff1615151515815250509050600073ffffffffffffffffffffffffffffffffffffffff16816000015173ffffffffffffffffffffffffffffffffffffffff161461286357809250505061289d565b61274e565b5b505b6040517fdf2d9b4200000000000000000000000000000000000000000000000000000000815260040160405180910390fd5b919050565b6000600860009054906101000a900473ffffffffffffffffffffffffffffffffffffffff16905081600860006101000a81548173ffffffffffffffffffffffffffffffffffffffff021916908373ffffffffffffffffffffffffffffffffffffffff1602179055508173ffffffffffffffffffffffffffffffffffffffff168173ffffffffffffffffffffffffffffffffffffffff167f8be0079c531659141344cd1fd0a4f28419497f9722a3daafe3b4186f6b6457e060405160405180910390a35050565b6000808273ffffffffffffffffffffffffffffffffffffffff163b119050919050565b60008373ffffffffffffffffffffffffffffffffffffffff1663150b7a026129b1611f52565b8786866040518563ffffffff1660e01b81526004016129d39493929190614636565b602060405180830381600087803b1580156129ed57600080fd5b505af1925050508015612a1e57506040513d601f19601f82011682018060405250810190612a1b9190614697565b60015b612a98573d8060008114612a4e576040519150601f19603f3d011682016040523d82523d6000602084013e612a53565b606091505b50600081511415612a90576040517fd1a57ed600000000000000000000000000000000000000000000000000000000815260040160405180910390fd5b805181602001fd5b63150b7a0260e01b7bffffffffffffffffffffffffffffffffffffffffffffffffffffffff1916817bffffffffffffffffffffffffffffffffffffffffffffffffffffffff191614915050949350505050565b606060006001612afa84612cc9565b01905060008167ffffffffffffffff811115612b1957612b18613628565b5b6040519080825280601f01601f191660200182016040528015612b4b5781602001600182028036833780820191505090505b509050600082602001820190505b600115612bb8578080600190039150507f3031323334353637383961626364656600000000000000000000000000000000600a86061a8153600a8581612ba257612ba16146c4565b5b0494506000851415612bb357612bb8565b612b59565b819350505050919050565b6060600e8054612bd290613de0565b80601f0160208091040260200160405190810160405280929190818152602001828054612bfe90613de0565b8015612c4b5780601f10612c2057610100808354040283529160200191612c4b565b820191906000526020600020905b815481529060010190602001808311612c2e57829003601f168201915b5050505050905090565b60008082905060005b8451811015612ca057612c8b82868381518110612c7e57612c7d614248565b5b6020026020010151612e1c565b91508080612c9890614277565b915050612c5e565b508091505092915050565b612cb88383836001612e47565b505050565b50505050565b50505050565b600080600090507a184f03e93ff9f4daa797ed6e38ed64bf6a1f0100000000000000008310612d27577a184f03e93ff9f4daa797ed6e38ed64bf6a1f0100000000000000008381612d1d57612d1c6146c4565b5b0492506040810190505b6d04ee2d6d415b85acef81000000008310612d64576d04ee2d6d415b85acef81000000008381612d5a57612d596146c4565b5b0492506020810190505b662386f26fc100008310612d9357662386f26fc100008381612d8957612d886146c4565b5b0492506010810190505b6305f5e1008310612dbc576305f5e1008381612db257612db16146c4565b5b0492506008810190505b6127108310612de1576127108381612dd757612dd66146c4565b5b0492506004810190505b60648310612e045760648381612dfa57612df96146c4565b5b0492506002810190505b600a8310612e13576001810190505b80915050919050565b6000818310612e3457612e2f8284613215565b612e3f565b612e3e8383613215565b5b905092915050565b600080549050600073ffffffffffffffffffffffffffffffffffffffff168573ffffffffffffffffffffffffffffffffffffffff161415612eb4576040517f2e07630000000000000000000000000000000000000000000000000000000000815260040160405180910390fd5b6000841415612eef576040517fb562e8dd00000000000000000000000000000000000000000000000000000000815260040160405180910390fd5b612efc6000868387612cbd565b83600560008773ffffffffffffffffffffffffffffffffffffffff1673ffffffffffffffffffffffffffffffffffffffff16815260200190815260200160002060000160008282829054906101000a900467ffffffffffffffff160192506101000a81548167ffffffffffffffff021916908367ffffffffffffffff16021790555083600560008773ffffffffffffffffffffffffffffffffffffffff1673ffffffffffffffffffffffffffffffffffffffff16815260200190815260200160002060000160088282829054906101000a900467ffffffffffffffff160192506101000a81548167ffffffffffffffff021916908367ffffffffffffffff160217905550846004600083815260200190815260200160002060000160006101000a81548173ffffffffffffffffffffffffffffffffffffffff021916908373ffffffffffffffffffffffffffffffffffffffff160217905550426004600083815260200190815260200160002060000160146101000a81548167ffffffffffffffff021916908367ffffffffffffffff1602179055506000819050600085820190508380156130c657506130c58773ffffffffffffffffffffffffffffffffffffffff16612968565b5b1561318c575b818773ffffffffffffffffffffffffffffffffffffffff16600073ffffffffffffffffffffffffffffffffffffffff167fddf252ad1be2c89b69c2b068fc378daa952ba7f163c4a11628f55a4df523b3ef60405160405180910390a461313b600088848060010195508861298b565b613171576040517fd1a57ed600000000000000000000000000000000000000000000000000000000815260040160405180910390fd5b808214156130cc57826000541461318757600080fd5b6131f8565b5b818060010192508773ffffffffffffffffffffffffffffffffffffffff16600073ffffffffffffffffffffffffffffffffffffffff167fddf252ad1be2c89b69c2b068fc378daa952ba7f163c4a11628f55a4df523b3ef60405160405180910390a48082141561318d575b81600081905550505061320e6000868387612cc3565b5050505050565b600082600052816020526040600020905092915050565b82805461323890613de0565b90600052602060002090601f01602090048101928261325a57600085556132a1565b82601f1061327357805160ff19168380011785556132a1565b828001600101855582156132a1579182015b828111156132a0578251825591602001919060010190613285565b5b5090506132ae91906132f5565b5090565b6040518060600160405280600073ffffffffffffffffffffffffffffffffffffffff168152602001600067ffffffffffffffff1681526020016000151581525090565b5b8082111561330e5760008160009055506001016132f6565b5090565b6000604051905090565b600080fd5b600080fd5b60007fffffffff0000000000000000000000000000000000000000000000000000000082169050919050565b61335b81613326565b811461336657600080fd5b50565b60008135905061337881613352565b92915050565b6000602082840312156133945761339361331c565b5b60006133a284828501613369565b91505092915050565b60008115159050919050565b6133c0816133ab565b82525050565b60006020820190506133db60008301846133b7565b92915050565b600081519050919050565b600082825260208201905092915050565b60005b8381101561341b578082015181840152602081019050613400565b8381111561342a576000848401525b50505050565b6000601f19601f8301169050919050565b600061344c826133e1565b61345681856133ec565b93506134668185602086016133fd565b61346f81613430565b840191505092915050565b600060208201905081810360008301526134948184613441565b905092915050565b6000819050919050565b6134af8161349c565b81146134ba57600080fd5b50565b6000813590506134cc816134a6565b92915050565b6000602082840312156134e8576134e761331c565b5b60006134f6848285016134bd565b91505092915050565b600073ffffffffffffffffffffffffffffffffffffffff82169050919050565b600061352a826134ff565b9050919050565b61353a8161351f565b82525050565b60006020820190506135556000830184613531565b92915050565b6135648161351f565b811461356f57600080fd5b50565b6000813590506135818161355b565b92915050565b6000806040838503121561359e5761359d61331c565b5b60006135ac85828601613572565b92505060206135bd858286016134bd565b9150509250929050565b6000602082840312156135dd576135dc61331c565b5b60006135eb84828501613572565b91505092915050565b6135fd8161349c565b82525050565b600060208201905061361860008301846135f4565b92915050565b600080fd5b600080fd5b7f4e487b7100000000000000000000000000000000000000000000000000000000600052604160045260246000fd5b61366082613430565b810181811067ffffffffffffffff8211171561367f5761367e613628565b5b80604052505050565b6000613692613312565b905061369e8282613657565b919050565b600067ffffffffffffffff8211156136be576136bd613628565b5b6136c782613430565b9050602081019050919050565b82818337600083830152505050565b60006136f66136f1846136a3565b613688565b90508281526020810184848401111561371257613711613623565b5b61371d8482856136d4565b509392505050565b600082601f83011261373a5761373961361e565b5b813561374a8482602086016136e3565b91505092915050565b6000602082840312156137695761376861331c565b5b600082013567ffffffffffffffff81111561378757613786613321565b5b61379384828501613725565b91505092915050565b600080fd5b600080fd5b60008083601f8401126137bc576137bb61361e565b5b8235905067ffffffffffffffff8111156137d9576137d861379c565b5b6020830191508360208202830111156137f5576137f46137a1565b5b9250929050565b6000806000604084860312156138155761381461331c565b5b6000613823868287016134bd565b935050602084013567ffffffffffffffff81111561384457613843613321565b5b613850868287016137a6565b92509250509250925092565b7f4e487b7100000000000000000000000000000000000000000000000000000000600052602160045260246000fd5b6004811061389c5761389b61385c565b5b50565b60008190506138ad8261388b565b919050565b60006138bd8261389f565b9050919050565b6138cd816138b2565b82525050565b60006020820190506138e860008301846138c4565b92915050565b6000806000606084860312156139075761390661331c565b5b600061391586828701613572565b935050602061392686828701613572565b9250506040613937868287016134bd565b9150509250925092565b6004811061394e57600080fd5b50565b60008135905061396081613941565b92915050565b60006020828403121561397c5761397b61331c565b5b600061398a84828501613951565b91505092915050565b6000819050919050565b6139a681613993565b82525050565b60006020820190506139c1600083018461399d565b92915050565b600081519050919050565b600082825260208201905092915050565b6000819050602082019050919050565b6139fc8161349c565b82525050565b6000613a0e83836139f3565b60208301905092915050565b6000602082019050919050565b6000613a32826139c7565b613a3c81856139d2565b9350613a47836139e3565b8060005b83811015613a78578151613a5f8882613a02565b9750613a6a83613a1a565b925050600181019050613a4b565b5085935050505092915050565b60006020820190508181036000830152613a9f8184613a27565b905092915050565b613ab081613993565b8114613abb57600080fd5b50565b600081359050613acd81613aa7565b92915050565b600060208284031215613ae957613ae861331c565b5b6000613af784828501613abe565b91505092915050565b613b09816133ab565b8114613b1457600080fd5b50565b600081359050613b2681613b00565b92915050565b60008060408385031215613b4357613b4261331c565b5b6000613b5185828601613572565b9250506020613b6285828601613b17565b9150509250929050565b600067ffffffffffffffff821115613b8757613b86613628565b5b613b9082613430565b9050602081019050919050565b6000613bb0613bab84613b6c565b613688565b905082815260208101848484011115613bcc57613bcb613623565b5b613bd78482856136d4565b509392505050565b600082601f830112613bf457613bf361361e565b5b8135613c04848260208601613b9d565b91505092915050565b60008060008060808587031215613c2757613c2661331c565b5b6000613c3587828801613572565b9450506020613c4687828801613572565b9350506040613c57878288016134bd565b925050606085013567ffffffffffffffff811115613c7857613c77613321565b5b613c8487828801613bdf565b91505092959194509250565b60008060008060608587031215613caa57613ca961331c565b5b6000613cb887828801613572565b9450506020613cc987828801613abe565b935050604085013567ffffffffffffffff811115613cea57613ce9613321565b5b613cf6878288016137a6565b925092505092959194509250565b600060208284031215613d1a57613d1961331c565b5b6000613d2884828501613b17565b91505092915050565b60008060408385031215613d4857613d4761331c565b5b6000613d5685828601613572565b9250506020613d6785828601613572565b9150509250929050565b60008060408385031215613d8857613d8761331c565b5b6000613d96858286016134bd565b9250506020613da785828601613572565b9150509250929050565b7f4e487b7100000000000000000000000000000000000000000000000000000000600052602260045260246000fd5b60006002820490506001821680613df857607f821691505b60208210811415613e0c57613e0b613db1565b5b50919050565b7f5468652077686974656c6973742073616c65206973206e6f7420656e61626c6560008201527f6421000000000000000000000000000000000000000000000000000000000000602082015250565b6000613e6e6022836133ec565b9150613e7982613e12565b604082019050919050565b60006020820190508181036000830152613e9d81613e61565b9050919050565b7f4e487b7100000000000000000000000000000000000000000000000000000000600052601160045260246000fd5b6000613ede8261349c565b9150613ee98361349c565b9250817fffffffffffffffffffffffffffffffffffffffffffffffffffffffffffffffff0483118215151615613f2257613f21613ea4565b5b828202905092915050565b7f496e73756666696369656e742066756e64732100000000000000000000000000600082015250565b6000613f636013836133ec565b9150613f6e82613f2d565b602082019050919050565b60006020820190508181036000830152613f9281613f56565b9050919050565b7f496e76616c6964206d696e7420616d6f756e7421000000000000000000000000600082015250565b6000613fcf6014836133ec565b9150613fda82613f99565b602082019050919050565b60006020820190508181036000830152613ffe81613fc2565b9050919050565b60006140108261349c565b915061401b8361349c565b9250827fffffffffffffffffffffffffffffffffffffffffffffffffffffffffffffffff038211156140505761404f613ea4565b5b828201905092915050565b7f4d617820737570706c7920657863656564656421000000000000000000000000600082015250565b60006140916014836133ec565b915061409c8261405b565b602082019050919050565b600060208201905081810360008301526140c081614084565b9050919050565b60008160601b9050919050565b60006140df826140c7565b9050919050565b60006140f1826140d4565b9050919050565b6141096141048261351f565b6140e6565b82525050565b600061411b82846140f8565b60148201915081905092915050565b7f496e76616c69642070726f6f6621000000000000000000000000000000000000600082015250565b6000614160600e836133ec565b915061416b8261412a565b602082019050919050565b6000602082019050818103600083015261418f81614153565b9050919050565b7f4164647265737320616c726561647920636c61696d6564210000000000000000600082015250565b60006141cc6018836133ec565b91506141d782614196565b602082019050919050565b600060208201905081810360008301526141fb816141bf565b9050919050565b600081905092915050565b50565b600061421d600083614202565b91506142288261420d565b600082019050919050565b600061423e82614210565b9150819050919050565b7f4e487b7100000000000000000000000000000000000000000000000000000000600052603260045260246000fd5b60006142828261349c565b91507fffffffffffffffffffffffffffffffffffffffffffffffffffffffffffffffff8214156142b5576142b4613ea4565b5b600182019050919050565b7f4552433732314d657461646174613a2055524920717565727920666f72206e6f60008201527f6e6578697374656e7420746f6b656e0000000000000000000000000000000000602082015250565b600061431c602f836133ec565b9150614327826142c0565b604082019050919050565b6000602082019050818103600083015261434b8161430f565b9050919050565b600081905092915050565b60008190508160005260206000209050919050565b6000815461437f81613de0565b6143898186614352565b945060018216600081146143a457600181146143b5576143e8565b60ff198316865281860193506143e8565b6143be8561435d565b60005b838110156143e0578154818901526001820191506020810190506143c1565b838801955050505b50505092915050565b60006143fc826133e1565b6144068185614352565b93506144168185602086016133fd565b80840191505092915050565b600061442e8285614372565b915061443a82846143f1565b91508190509392505050565b600061445282866143f1565b915061445e82856143f1565b915061446a8284614372565b9150819050949350505050565b7f4f776e61626c653a206e6577206f776e657220697320746865207a65726f206160008201527f6464726573730000000000000000000000000000000000000000000000000000602082015250565b60006144d36026836133ec565b91506144de82614477565b604082019050919050565b60006020820190508181036000830152614502816144c6565b9050919050565b7f4f776e61626c653a2063616c6c6572206973206e6f7420746865206f776e6572600082015250565b600061453f6020836133ec565b915061454a82614509565b602082019050919050565b6000602082019050818103600083015261456e81614532565b9050919050565b7f5265656e7472616e637947756172643a207265656e7472616e742063616c6c00600082015250565b60006145ab601f836133ec565b91506145b682614575565b602082019050919050565b600060208201905081810360008301526145da8161459e565b9050919050565b600081519050919050565b600082825260208201905092915050565b6000614608826145e1565b61461281856145ec565b93506146228185602086016133fd565b61462b81613430565b840191505092915050565b600060808201905061464b6000830187613531565b6146586020830186613531565b61466560408301856135f4565b818103606083015261467781846145fd565b905095945050505050565b60008151905061469181613352565b92915050565b6000602082840312156146ad576146ac61331c565b5b60006146bb84828501614682565b91505092915050565b7f4e487b7100000000000000000000000000000000000000000000000000000000600052601260045260246000fdfea26469706673582212204d4f226dbc09fa5ccd4c9ed497b3e4fa3a9bac8a03a29a74f3dd588479509a6d64736f6c6343000809003368747470733a2f2f697066732e696f2f697066732f516d5a67327a6f5242736a52315037436a6941743770433561544332316275586234635531746f63533962516b6d2f",
  "linkReferences": {},
  "deployedLinkReferences": {}
}